{"abi":[{"type":"constructor","inputs":[{"name":"controllerGasLimit","type":"uint256","internalType":"uint256"}],"stateMutability":"nonpayable"},{"type":"receive","stateMutability":"payable"},{"type":"function","name":"MAX_TICK_SPACING","inputs":[],"outputs":[{"name":"","type":"int24","internalType":"int24"}],"stateMutability":"view"},{"type":"function","name":"MIN_PROTOCOL_FEE_DENOMINATOR","inputs":[],"outputs":[{"name":"","type":"uint8","internalType":"uint8"}],"stateMutability":"view"},{"type":"function","name":"MIN_TICK_SPACING","inputs":[],"outputs":[{"name":"","type":"int24","internalType":"int24"}],"stateMutability":"view"},{"type":"function","name":"allowance","inputs":[{"name":"","type":"address","internalType":"address"},{"name":"","type":"address","internalType":"address"},{"name":"","type":"uint256","internalType":"uint256"}],"outputs":[{"name":"","type":"uint256","internalType":"uint256"}],"stateMutability":"view"},{"type":"function","name":"approve","inputs":[{"name":"spender","type":"address","internalType":"address"},{"name":"id","type":"uint256","internalType":"uint256"},{"name":"amount","type":"uint256","internalType":"uint256"}],"outputs":[{"name":"","type":"bool","internalType":"bool"}],"stateMutability":"nonpayable"},{"type":"function","name":"balanceOf","inputs":[{"name":"","type":"address","internalType":"address"},{"name":"","type":"uint256","internalType":"uint256"}],"outputs":[{"name":"","type":"uint256","internalType":"uint256"}],"stateMutability":"view"},{"type":"function","name":"burn","inputs":[{"name":"from","type":"address","internalType":"address"},{"name":"id","type":"uint256","internalType":"uint256"},{"name":"amount","type":"uint256","internalType":"uint256"}],"outputs":[],"stateMutability":"nonpayable"},{"type":"function","name":"collectProtocolFees","inputs":[{"name":"recipient","type":"address","internalType":"address"},{"name":"currency","type":"address","internalType":"Currency"},{"name":"amount","type":"uint256","internalType":"uint256"}],"outputs":[{"name":"amountCollected","type":"uint256","internalType":"uint256"}],"stateMutability":"nonpayable"},{"type":"function","name":"currencyDelta","inputs":[{"name":"caller","type":"address","internalType":"address"},{"name":"currency","type":"address","internalType":"Currency"}],"outputs":[{"name":"currencyDelta","type":"int256","internalType":"int256"}],"stateMutability":"view"},{"type":"function","name":"donate","inputs":[{"name":"key","type":"tuple","internalType":"struct PoolKey","components":[{"name":"currency0","type":"address","internalType":"Currency"},{"name":"currency1","type":"address","internalType":"Currency"},{"name":"fee","type":"uint24","internalType":"uint24"},{"name":"tickSpacing","type":"int24","internalType":"int24"},{"name":"hooks","type":"address","internalType":"contract IHooks"}]},{"name":"amount0","type":"uint256","internalType":"uint256"},{"name":"amount1","type":"uint256","internalType":"uint256"},{"name":"hookData","type":"bytes","internalType":"bytes"}],"outputs":[{"name":"delta","type":"int256","internalType":"BalanceDelta"}],"stateMutability":"nonpayable"},{"type":"function","name":"extsload","inputs":[{"name":"slot","type":"bytes32","internalType":"bytes32"}],"outputs":[{"name":"value","type":"bytes32","internalType":"bytes32"}],"stateMutability":"view"},{"type":"function","name":"extsload","inputs":[{"name":"startSlot","type":"bytes32","internalType":"bytes32"},{"name":"nSlots","type":"uint256","internalType":"uint256"}],"outputs":[{"name":"","type":"bytes","internalType":"bytes"}],"stateMutability":"view"},{"type":"function","name":"getLiquidity","inputs":[{"name":"id","type":"bytes32","internalType":"PoolId"},{"name":"_owner","type":"address","internalType":"address"},{"name":"tickLower","type":"int24","internalType":"int24"},{"name":"tickUpper","type":"int24","internalType":"int24"}],"outputs":[{"name":"liquidity","type":"uint128","internalType":"uint128"}],"stateMutability":"view"},{"type":"function","name":"getLiquidity","inputs":[{"name":"id","type":"bytes32","internalType":"PoolId"}],"outputs":[{"name":"liquidity","type":"uint128","internalType":"uint128"}],"stateMutability":"view"},{"type":"function","name":"getLockNonzeroDeltaCount","inputs":[],"outputs":[{"name":"_nonzeroDeltaCount","type":"uint256","internalType":"uint256"}],"stateMutability":"view"},{"type":"function","name":"getPoolBitmapInfo","inputs":[{"name":"id","type":"bytes32","internalType":"PoolId"},{"name":"word","type":"int16","internalType":"int16"}],"outputs":[{"name":"tickBitmap","type":"uint256","internalType":"uint256"}],"stateMutability":"view"},{"type":"function","name":"getPoolTickInfo","inputs":[{"name":"id","type":"bytes32","internalType":"PoolId"},{"name":"tick","type":"int24","internalType":"int24"}],"outputs":[{"name":"","type":"tuple","internalType":"struct Pool.TickInfo","components":[{"name":"liquidityGross","type":"uint128","internalType":"uint128"},{"name":"liquidityNet","type":"int128","internalType":"int128"},{"name":"feeGrowthOutside0X128","type":"uint256","internalType":"uint256"},{"name":"feeGrowthOutside1X128","type":"uint256","internalType":"uint256"}]}],"stateMutability":"view"},{"type":"function","name":"getPosition","inputs":[{"name":"id","type":"bytes32","internalType":"PoolId"},{"name":"_owner","type":"address","internalType":"address"},{"name":"tickLower","type":"int24","internalType":"int24"},{"name":"tickUpper","type":"int24","internalType":"int24"}],"outputs":[{"name":"position","type":"tuple","internalType":"struct Position.Info","components":[{"name":"liquidity","type":"uint128","internalType":"uint128"},{"name":"feeGrowthInside0LastX128","type":"uint256","internalType":"uint256"},{"name":"feeGrowthInside1LastX128","type":"uint256","internalType":"uint256"}]}],"stateMutability":"view"},{"type":"function","name":"getSlot0","inputs":[{"name":"id","type":"bytes32","internalType":"PoolId"}],"outputs":[{"name":"sqrtPriceX96","type":"uint160","internalType":"uint160"},{"name":"tick","type":"int24","internalType":"int24"},{"name":"protocolFee","type":"uint16","internalType":"uint16"},{"name":"swapFee","type":"uint24","internalType":"uint24"}],"stateMutability":"view"},{"type":"function","name":"initialize","inputs":[{"name":"key","type":"tuple","internalType":"struct PoolKey","components":[{"name":"currency0","type":"address","internalType":"Currency"},{"name":"currency1","type":"address","internalType":"Currency"},{"name":"fee","type":"uint24","internalType":"uint24"},{"name":"tickSpacing","type":"int24","internalType":"int24"},{"name":"hooks","type":"address","internalType":"contract IHooks"}]},{"name":"sqrtPriceX96","type":"uint160","internalType":"uint160"},{"name":"hookData","type":"bytes","internalType":"bytes"}],"outputs":[{"name":"tick","type":"int24","internalType":"int24"}],"stateMutability":"nonpayable"},{"type":"function","name":"isLockSet","inputs":[],"outputs":[{"name":"","type":"bool","internalType":"bool"}],"stateMutability":"view"},{"type":"function","name":"isOperator","inputs":[{"name":"","type":"address","internalType":"address"},{"name":"","type":"address","internalType":"address"}],"outputs":[{"name":"","type":"bool","internalType":"bool"}],"stateMutability":"view"},{"type":"function","name":"lock","inputs":[{"name":"data","type":"bytes","internalType":"bytes"}],"outputs":[{"name":"result","type":"bytes","internalType":"bytes"}],"stateMutability":"payable"},{"type":"function","name":"mint","inputs":[{"name":"to","type":"address","internalType":"address"},{"name":"id","type":"uint256","internalType":"uint256"},{"name":"amount","type":"uint256","internalType":"uint256"}],"outputs":[],"stateMutability":"nonpayable"},{"type":"function","name":"modifyLiquidity","inputs":[{"name":"key","type":"tuple","internalType":"struct PoolKey","components":[{"name":"currency0","type":"address","internalType":"Currency"},{"name":"currency1","type":"address","internalType":"Currency"},{"name":"fee","type":"uint24","internalType":"uint24"},{"name":"tickSpacing","type":"int24","internalType":"int24"},{"name":"hooks","type":"address","internalType":"contract IHooks"}]},{"name":"params","type":"tuple","internalType":"struct IPoolManager.ModifyLiquidityParams","components":[{"name":"tickLower","type":"int24","internalType":"int24"},{"name":"tickUpper","type":"int24","internalType":"int24"},{"name":"liquidityDelta","type":"int256","internalType":"int256"}]},{"name":"hookData","type":"bytes","internalType":"bytes"}],"outputs":[{"name":"delta","type":"int256","internalType":"BalanceDelta"}],"stateMutability":"nonpayable"},{"type":"function","name":"owner","inputs":[],"outputs":[{"name":"","type":"address","internalType":"address"}],"stateMutability":"view"},{"type":"function","name":"pools","inputs":[{"name":"id","type":"bytes32","internalType":"PoolId"}],"outputs":[{"name":"slot0","type":"tuple","internalType":"struct Pool.Slot0","components":[{"name":"sqrtPriceX96","type":"uint160","internalType":"uint160"},{"name":"tick","type":"int24","internalType":"int24"},{"name":"protocolFee","type":"uint16","internalType":"uint16"},{"name":"swapFee","type":"uint24","internalType":"uint24"}]},{"name":"feeGrowthGlobal0X128","type":"uint256","internalType":"uint256"},{"name":"feeGrowthGlobal1X128","type":"uint256","internalType":"uint256"},{"name":"liquidity","type":"uint128","internalType":"uint128"}],"stateMutability":"view"},{"type":"function","name":"protocolFeeController","inputs":[],"outputs":[{"name":"","type":"address","internalType":"contract IProtocolFeeController"}],"stateMutability":"view"},{"type":"function","name":"protocolFeesAccrued","inputs":[{"name":"currency","type":"address","internalType":"Currency"}],"outputs":[{"name":"","type":"uint256","internalType":"uint256"}],"stateMutability":"view"},{"type":"function","name":"reservesOf","inputs":[{"name":"currency","type":"address","internalType":"Currency"}],"outputs":[{"name":"","type":"uint256","internalType":"uint256"}],"stateMutability":"view"},{"type":"function","name":"setOperator","inputs":[{"name":"operator","type":"address","internalType":"address"},{"name":"approved","type":"bool","internalType":"bool"}],"outputs":[{"name":"","type":"bool","internalType":"bool"}],"stateMutability":"nonpayable"},{"type":"function","name":"setOwner","inputs":[{"name":"_owner","type":"address","internalType":"address"}],"outputs":[],"stateMutability":"nonpayable"},{"type":"function","name":"setProtocolFee","inputs":[{"name":"key","type":"tuple","internalType":"struct PoolKey","components":[{"name":"currency0","type":"address","internalType":"Currency"},{"name":"currency1","type":"address","internalType":"Currency"},{"name":"fee","type":"uint24","internalType":"uint24"},{"name":"tickSpacing","type":"int24","internalType":"int24"},{"name":"hooks","type":"address","internalType":"contract IHooks"}]}],"outputs":[],"stateMutability":"nonpayable"},{"type":"function","name":"setProtocolFeeController","inputs":[{"name":"controller","type":"address","internalType":"contract IProtocolFeeController"}],"outputs":[],"stateMutability":"nonpayable"},{"type":"function","name":"settle","inputs":[{"name":"currency","type":"address","internalType":"Currency"}],"outputs":[{"name":"paid","type":"uint256","internalType":"uint256"}],"stateMutability":"payable"},{"type":"function","name":"supportsInterface","inputs":[{"name":"interfaceId","type":"bytes4","internalType":"bytes4"}],"outputs":[{"name":"","type":"bool","internalType":"bool"}],"stateMutability":"view"},{"type":"function","name":"swap","inputs":[{"name":"key","type":"tuple","internalType":"struct PoolKey","components":[{"name":"currency0","type":"address","internalType":"Currency"},{"name":"currency1","type":"address","internalType":"Currency"},{"name":"fee","type":"uint24","internalType":"uint24"},{"name":"tickSpacing","type":"int24","internalType":"int24"},{"name":"hooks","type":"address","internalType":"contract IHooks"}]},{"name":"params","type":"tuple","internalType":"struct IPoolManager.SwapParams","components":[{"name":"zeroForOne","type":"bool","internalType":"bool"},{"name":"amountSpecified","type":"int256","internalType":"int256"},{"name":"sqrtPriceLimitX96","type":"uint160","internalType":"uint160"}]},{"name":"hookData","type":"bytes","internalType":"bytes"}],"outputs":[{"name":"delta","type":"int256","internalType":"BalanceDelta"}],"stateMutability":"nonpayable"},{"type":"function","name":"take","inputs":[{"name":"currency","type":"address","internalType":"Currency"},{"name":"to","type":"address","internalType":"address"},{"name":"amount","type":"uint256","internalType":"uint256"}],"outputs":[],"stateMutability":"nonpayable"},{"type":"function","name":"transfer","inputs":[{"name":"receiver","type":"address","internalType":"address"},{"name":"id","type":"uint256","internalType":"uint256"},{"name":"amount","type":"uint256","internalType":"uint256"}],"outputs":[{"name":"","type":"bool","internalType":"bool"}],"stateMutability":"nonpayable"},{"type":"function","name":"transferFrom","inputs":[{"name":"sender","type":"address","internalType":"address"},{"name":"receiver","type":"address","internalType":"address"},{"name":"id","type":"uint256","internalType":"uint256"},{"name":"amount","type":"uint256","internalType":"uint256"}],"outputs":[{"name":"","type":"bool","internalType":"bool"}],"stateMutability":"nonpayable"},{"type":"function","name":"updateDynamicSwapFee","inputs":[{"name":"key","type":"tuple","internalType":"struct PoolKey","components":[{"name":"currency0","type":"address","internalType":"Currency"},{"name":"currency1","type":"address","internalType":"Currency"},{"name":"fee","type":"uint24","internalType":"uint24"},{"name":"tickSpacing","type":"int24","internalType":"int24"},{"name":"hooks","type":"address","internalType":"contract IHooks"}]},{"name":"newDynamicSwapFee","type":"uint24","internalType":"uint24"}],"outputs":[],"stateMutability":"nonpayable"},{"type":"event","name":"Approval","inputs":[{"name":"owner","type":"address","indexed":true,"internalType":"address"},{"name":"spender","type":"address","indexed":true,"internalType":"address"},{"name":"id","type":"uint256","indexed":true,"internalType":"uint256"},{"name":"amount","type":"uint256","indexed":false,"internalType":"uint256"}],"anonymous":false},{"type":"event","name":"Initialize","inputs":[{"name":"id","type":"bytes32","indexed":true,"internalType":"PoolId"},{"name":"currency0","type":"address","indexed":true,"internalType":"Currency"},{"name":"currency1","type":"address","indexed":true,"internalType":"Currency"},{"name":"fee","type":"uint24","indexed":false,"internalType":"uint24"},{"name":"tickSpacing","type":"int24","indexed":false,"internalType":"int24"},{"name":"hooks","type":"address","indexed":false,"internalType":"contract IHooks"}],"anonymous":false},{"type":"event","name":"ModifyLiquidity","inputs":[{"name":"id","type":"bytes32","indexed":true,"internalType":"PoolId"},{"name":"sender","type":"address","indexed":true,"internalType":"address"},{"name":"tickLower","type":"int24","indexed":false,"internalType":"int24"},{"name":"tickUpper","type":"int24","indexed":false,"internalType":"int24"},{"name":"liquidityDelta","type":"int256","indexed":false,"internalType":"int256"}],"anonymous":false},{"type":"event","name":"OperatorSet","inputs":[{"name":"owner","type":"address","indexed":true,"internalType":"address"},{"name":"operator","type":"address","indexed":true,"internalType":"address"},{"name":"approved","type":"bool","indexed":false,"internalType":"bool"}],"anonymous":false},{"type":"event","name":"OwnerChanged","inputs":[{"name":"oldOwner","type":"address","indexed":true,"internalType":"address"},{"name":"newOwner","type":"address","indexed":true,"internalType":"address"}],"anonymous":false},{"type":"event","name":"ProtocolFeeControllerUpdated","inputs":[{"name":"protocolFeeController","type":"address","indexed":false,"internalType":"address"}],"anonymous":false},{"type":"event","name":"ProtocolFeeUpdated","inputs":[{"name":"id","type":"bytes32","indexed":true,"internalType":"PoolId"},{"name":"protocolFee","type":"uint16","indexed":false,"internalType":"uint16"}],"anonymous":false},{"type":"event","name":"Swap","inputs":[{"name":"id","type":"bytes32","indexed":true,"internalType":"PoolId"},{"name":"sender","type":"address","indexed":true,"internalType":"address"},{"name":"amount0","type":"int128","indexed":false,"internalType":"int128"},{"name":"amount1","type":"int128","indexed":false,"internalType":"int128"},{"name":"sqrtPriceX96","type":"uint160","indexed":false,"internalType":"uint160"},{"name":"liquidity","type":"uint128","indexed":false,"internalType":"uint128"},{"name":"tick","type":"int24","indexed":false,"internalType":"int24"},{"name":"fee","type":"uint24","indexed":false,"internalType":"uint24"}],"anonymous":false},{"type":"event","name":"Transfer","inputs":[{"name":"caller","type":"address","indexed":false,"internalType":"address"},{"name":"from","type":"address","indexed":true,"internalType":"address"},{"name":"to","type":"address","indexed":true,"internalType":"address"},{"name":"id","type":"uint256","indexed":true,"internalType":"uint256"},{"name":"amount","type":"uint256","indexed":false,"internalType":"uint256"}],"anonymous":false},{"type":"error","name":"AlreadyLocked","inputs":[]},{"type":"error","name":"CannotUpdateEmptyPosition","inputs":[]},{"type":"error","name":"CurrenciesOutOfOrderOrEqual","inputs":[]},{"type":"error","name":"CurrencyNotSettled","inputs":[]},{"type":"error","name":"DelegateCallNotAllowed","inputs":[]},{"type":"error","name":"ERC20TransferFailed","inputs":[]},{"type":"error","name":"FailedHookCall","inputs":[]},{"type":"error","name":"FeeNotDynamic","inputs":[]},{"type":"error","name":"FeeTooLarge","inputs":[]},{"type":"error","name":"HookAddressNotValid","inputs":[{"name":"hooks","type":"address","internalType":"address"}]},{"type":"error","name":"InvalidCaller","inputs":[]},{"type":"error","name":"InvalidHookResponse","inputs":[]},{"type":"error","name":"InvalidPrice","inputs":[]},{"type":"error","name":"InvalidPriceOrLiquidity","inputs":[]},{"type":"error","name":"InvalidSqrtRatio","inputs":[]},{"type":"error","name":"InvalidTick","inputs":[]},{"type":"error","name":"ManagerNotLocked","inputs":[]},{"type":"error","name":"MaxCurrenciesTouched","inputs":[]},{"type":"error","name":"NativeTransferFailed","inputs":[]},{"type":"error","name":"NoLiquidityToReceiveFees","inputs":[]},{"type":"error","name":"NotEnoughLiquidity","inputs":[]},{"type":"error","name":"NotPoolManagerToken","inputs":[]},{"type":"error","name":"PoolAlreadyInitialized","inputs":[]},{"type":"error","name":"PoolNotInitialized","inputs":[]},{"type":"error","name":"PoolNotInitialized","inputs":[]},{"type":"error","name":"PriceLimitAlreadyExceeded","inputs":[{"name":"sqrtPriceCurrentX96","type":"uint160","internalType":"uint160"},{"name":"sqrtPriceLimitX96","type":"uint160","internalType":"uint160"}]},{"type":"error","name":"PriceLimitOutOfBounds","inputs":[{"name":"sqrtPriceLimitX96","type":"uint160","internalType":"uint160"}]},{"type":"error","name":"PriceOverflow","inputs":[]},{"type":"error","name":"ProtocolFeeCannotBeFetched","inputs":[]},{"type":"error","name":"ProtocolFeeControllerCallFailedOrInvalidResult","inputs":[]},{"type":"error","name":"SafeCastOverflow","inputs":[]},{"type":"error","name":"SwapAmountCannotBeZero","inputs":[]},{"type":"error","name":"TickLiquidityOverflow","inputs":[{"name":"tick","type":"int24","internalType":"int24"}]},{"type":"error","name":"TickLowerOutOfBounds","inputs":[{"name":"tickLower","type":"int24","internalType":"int24"}]},{"type":"error","name":"TickMisaligned","inputs":[{"name":"tick","type":"int24","internalType":"int24"},{"name":"tickSpacing","type":"int24","internalType":"int24"}]},{"type":"error","name":"TickSpacingTooLarge","inputs":[]},{"type":"error","name":"TickSpacingTooSmall","inputs":[]},{"type":"error","name":"TickUpperOutOfBounds","inputs":[{"name":"tickUpper","type":"int24","internalType":"int24"}]},{"type":"error","name":"TicksMisordered","inputs":[{"name":"tickLower","type":"int24","internalType":"int24"},{"name":"tickUpper","type":"int24","internalType":"int24"}]},{"type":"error","name":"UnauthorizedDynamicSwapFeeUpdate","inputs":[]}],"bytecode":{"object":"0x60c060405234801562000010575f80fd5b50604051620055eb380380620055eb83398101604081905262000033916200007f565b5f80546001600160a01b0319163390811782556040518392907fb532073b38c83145e3e5135377a08bf9aab55bc0fd7c1179cd4fb995d2a5159c908290a3608052503060a05262000097565b5f6020828403121562000090575f80fd5b5051919050565b60805160a05161552b620000c05f395f611a3901525f8181611fa10152611ff8015261552b5ff3fe608060405260043610610240575f3560e01c80636a256b2911610134578063b02375ce116100b3578063d9b054b411610078578063d9b054b414610921578063f02de3b214610935578063f3cd914c14610954578063f5298aca14610973578063fa6793d514610992578063fe99049a146109c9575f80fd5b8063b02375ce146106fc578063b5217bb41461071b578063b6363cf214610810578063bec999dd14610849578063c815641c14610868575f80fd5b80638da5cb5b116100f95780638da5cb5b1461061b57806393c85a211461065157806397e8cd4e1461067c578063a412b9d8146106a7578063a54b2831146106c6575f80fd5b80636a256b29146105915780637c352ef6146105a457806381548319146105c35780638161b874146105d657806384e41c5e146105f5575f80fd5b80632d771389116101c0578063558a729711610185578063558a7297146104a4578063598af9e7146104c35780635aa208a4146104ff57806360460f061461055d578063695c5bf514610572575f80fd5b80632d771389146103ef57806333aa955b1461040e57806335fd631a14610445578063426a84931461047157806346063d0514610490575f80fd5b80630b0d9c09116102065780630b0d9c091461035357806313af403514610374578063156e29f6146103935780631e2eaeaf146103b2578063234266d7146103d0575f80fd5b8062fdd58e1461024b57806301ffc9a714610294578063048d9c70146102c357806307eff0dd1461030d578063095bcdb614610334575f80fd5b3661024757005b5f80fd5b348015610256575f80fd5b50610281610265366004614932565b600460209081525f928352604080842090915290825290205481565b6040519081526020015b60405180910390f35b34801561029f575f80fd5b506102b36102ae366004614971565b6109e8565b604051901515815260200161028b565b3480156102ce575f80fd5b506102e26102dd36600461499d565b610a1e565b6040805182516001600160801b0316815260208084015190820152918101519082015260600161028b565b348015610318575f80fd5b50610321600181565b60405160029190910b815260200161028b565b34801561033f575f80fd5b506102b361034e3660046149e9565b610a9a565b34801561035e575f80fd5b5061037261036d366004614a1b565b610b41565b005b34801561037f575f80fd5b5061037261038e366004614a59565b610bc6565b34801561039e575f80fd5b506103726103ad3660046149e9565b610c49565b3480156103bd575f80fd5b506102816103cc366004614a74565b5490565b3480156103db575f80fd5b506102816103ea366004614bb5565b610c8e565b3480156103fa575f80fd5b50610372610409366004614a59565b610d37565b348015610419575f80fd5b5061042d61042836600461499d565b610db5565b6040516001600160801b03909116815260200161028b565b348015610450575f80fd5b5061046461045f366004614c1a565b610de4565b60405161028b9190614c5c565b34801561047c575f80fd5b506102b361048b3660046149e9565b610e62565b34801561049b575f80fd5b50610281610ec6565b3480156104af575f80fd5b506102b36104be366004614c9d565b610ed4565b3480156104ce575f80fd5b506102816104dd366004614a1b565b600560209081525f938452604080852082529284528284209052825290205481565b34801561050a575f80fd5b5061051e610519366004614cd0565b610f43565b60405161028b919081516001600160801b03168152602080830151600f0b90820152604080830151908201526060918201519181019190915260800190565b348015610568575f80fd5b50610321617fff81565b34801561057d575f80fd5b5061032161058c366004614cf1565b610fe0565b61028161059f366004614a59565b6111db565b3480156105af575f80fd5b506102816105be366004614d51565b61126e565b6104646105d1366004614d84565b611293565b3480156105e1575f80fd5b506102816105f0366004614a1b565b61135a565b348015610600575f80fd5b50610609600481565b60405160ff909116815260200161028b565b348015610626575f80fd5b505f54610639906001600160a01b031681565b6040516001600160a01b03909116815260200161028b565b34801561065c575f80fd5b5061028161066b366004614a59565b60076020525f908152604090205481565b348015610687575f80fd5b50610281610696366004614a59565b60016020525f908152604090205481565b3480156106b2575f80fd5b506103726106c1366004614dc3565b6113f2565b3480156106d1575f80fd5b506102816106e0366004614dec565b600660209081525f928352604080842090915290825290205481565b348015610707575f80fd5b50610372610716366004614e18565b61146e565b348015610726575f80fd5b506107ae610735366004614a74565b600860209081525f918252604091829020825160808101845281546001600160a01b0381168252600160a01b8104600290810b94830194909452600160b81b810461ffff1694820194909452600160c81b90930462ffffff1660608401526001810154918101546003909101546001600160801b031684565b6040805185516001600160a01b0316815260208087015160020b908201528582015161ffff169181019190915260609485015162ffffff1694810194909452608084019290925260a08301526001600160801b031660c082015260e00161028b565b34801561081b575f80fd5b506102b361082a366004614dec565b600360209081525f928352604080842090915290825290205460ff1681565b348015610854575f80fd5b50610281610863366004614e32565b6114fe565b348015610873575f80fd5b506108e6610882366004614a74565b5f90815260086020908152604091829020825160808101845290546001600160a01b038116808352600160a01b820460020b938301849052600160b81b820461ffff16948301859052600160c81b90910462ffffff16606090920182905293919291565b604080516001600160a01b03909516855260029390930b602085015261ffff9091169183019190915262ffffff16606082015260800161028b565b34801561092c575f80fd5b506102b3611655565b348015610940575f80fd5b50600254610639906001600160a01b031681565b34801561095f575f80fd5b5061028161096e366004614eb2565b61165e565b34801561097e575f80fd5b5061037261098d3660046149e9565b61182f565b34801561099d575f80fd5b5061042d6109ac366004614a74565b5f908152600860205260409020600301546001600160801b031690565b3480156109d4575f80fd5b506102b36109e3366004614f34565b611874565b5f6301ffc9a760e01b6001600160e01b031983161480610a185750630f632fb360e01b6001600160e01b03198316145b92915050565b610a4860405180606001604052805f6001600160801b031681526020015f81526020015f81525090565b5f858152600860205260409020610a64906006018585856119d2565b6040805160608101825282546001600160801b03168152600183015460208201526002909201549082015290505b949350505050565b335f908152600460209081526040808320858452909152812080548391908390610ac5908490614f8b565b90915550506001600160a01b0384165f90815260046020908152604080832086845290915281208054849290610afc908490614f9e565b909155505060408051338082526020820185905285926001600160a01b038816925f805160206154d683398151915291015b60405180910390a45060015b9392505050565b610b49611a2e565b610b51611a79565b610b6e5760405163eab072a760e01b815260040160405180910390fd5b610b8083610b7b83611aad565b611ada565b6001600160a01b0383165f9081526007602052604081208054839290610ba7908490614f8b565b90915550610bc190506001600160a01b0384168383611b6d565b505050565b5f546001600160a01b03163314610bf0576040516348f5c3ed60e01b815260040160405180910390fd5b5f80546040516001600160a01b03808516939216917fb532073b38c83145e3e5135377a08bf9aab55bc0fd7c1179cd4fb995d2a5159c91a35f80546001600160a01b0319166001600160a01b0392909216919091179055565b610c51611a2e565b610c59611a79565b610c765760405163eab072a760e01b815260040160405180910390fd5b610c8382610b7b83611aad565b610bc1838383611c05565b5f610c97611a2e565b610c9f611a79565b610cbc5760405163eab072a760e01b815260040160405180910390fd5b5f610cc687611c77565b9050610cd181611ca6565b6080870151610ced906001600160a01b03168888888888611cdd565b5f818152600860205260409020610d05908787611d5d565b9150610d118783611e1e565b6080870151610d2d906001600160a01b03168888888888611e41565b5095945050505050565b5f546001600160a01b03163314610d61576040516348f5c3ed60e01b815260040160405180910390fd5b600280546001600160a01b0319166001600160a01b0383169081179091556040519081527fb4bd8ef53df690b9943d3318996006dbb82a25f54719d8c8035b516a2a5b8acc9060200160405180910390a150565b5f848152600860205260408120610dd1906006018585856119d2565b546001600160801b031695945050505050565b60605f610df2836020614fb1565b67ffffffffffffffff811115610e0a57610e0a614a8b565b6040519080825280601f01601f191660200182016040528015610e34576020820181803683370190505b5090505f5b83811015610e5a578085015460206001830102830152600181019050610e39565b509392505050565b335f8181526005602090815260408083206001600160a01b03881680855290835281842087855290925280832085905551919285927fb3fd5071835887567a0671151121894ddccc2842f1d10bedad13e0d17cace9a790610b2e9087815260200190565b5f610ecf611e77565b905090565b335f8181526003602090815260408083206001600160a01b038716808552908352818420805460ff191687151590811790915591519182529293917fceb576d9f15e4e200fdb5096d64d5dfd667e16def20c1eefd14256d8e3faa267910160405180910390a350600192915050565b60408051608080820183525f8083526020808401829052838501829052606080850183905287835260088252858320865180860188528481528084018590528088018590528201849052600288810b855260049091018352928690208651948501875280546001600160801b0381168652600160801b9004600f0b9285019290925260018201549584019590955201549281019290925290610b3a565b5f617fff60010b60020b856060015160020b131561101157604051635815aee160e11b815260040160405180910390fd5b600160020b856060015160020b121561103d57604051630b7f3b4b60e11b815260040160405180910390fd5b845160208601516001600160a01b0390811691161061106f5760405163eaa6c6eb60e01b815260040160405180910390fd5b611093856040015186608001516001600160a01b0316611ea490919063ffffffff16565b6110c6576080850151604051630732d7b560e51b81526001600160a01b0390911660048201526024015b60405180910390fd5b5f6110d9866040015162ffffff16611ee9565b60808701519091506110f7906001600160a01b031687878787611f11565b5f61110187611c77565b90505f61110d88611f8a565b5f84815260086020526040902090925061112a9150888386612109565b6080890151909450611149906001600160a01b03168989878a8a6121cf565b87602001516001600160a01b0316885f01516001600160a01b0316837f3fd553db44f207b1f41348cfc4d251860814af9eadc470e8e7895e4d120511f48b604001518c606001518d608001516040516111c89392919062ffffff93909316835260029190910b60208301526001600160a01b0316604082015260600190565b60405180910390a4505050949350505050565b5f6111e4611a2e565b6111ec611a79565b6112095760405163eab072a760e01b815260040160405180910390fd5b6001600160a01b0382165f818152600760205260409020549061122b90612201565b6001600160a01b0384165f908152600760205260409020819055611250908290614f8b565b91506112688361125f84611aad565b610b7b90614fc8565b50919050565b5f828152600860209081526040808320600185900b8452600501909152812054610b3a565b606061129d611a79565b156112bb576040516317c3335f60e21b815260040160405180910390fd5b6112c361227d565b6040516355b148ff60e11b8152339063ab6291fe906112e89086908690600401615014565b5f604051808303815f875af1158015611303573d5f803e3d5ffd5b505050506040513d5f823e601f3d908101601f1916820160405261132a9190810190615027565b9050611334611e77565b1561135257604051635212cba160e01b815260040160405180910390fd5b610a186122b2565b6002545f906001600160a01b03163314611387576040516348f5c3ed60e01b815260040160405180910390fd5b811561139357816113ac565b6001600160a01b0383165f908152600160205260409020545b6001600160a01b0384165f908152600160205260408120805492935083929091906113d8908490614f8b565b90915550610b3a90506001600160a01b0384168583611b6d565b60408201516280000016158061141e575081608001516001600160a01b0316336001600160a01b031614155b1561143c5760405163854b0b8560e01b815260040160405180910390fd5b61144a8162ffffff166122e6565b5f61145483611c77565b5f818152600860205260409020909150610bc1908361230e565b5f8061147983611f8a565b915091508161149b5760405163e7ca185f60e01b815260040160405180910390fd5b5f6114a584611c77565b5f8181526008602052604090209091506114bf9083612355565b60405161ffff8316815281907f9f9496a7bce5dc5951d2db4c6bac380c9bcbcc9a4e9c18eafbcc231d06de481a9060200160405180910390a250505050565b5f611507611a2e565b61150f611a79565b61152c5760405163eab072a760e01b815260040160405180910390fd5b5f61153686611c77565b905061154181611ca6565b608086015161155c906001600160a01b03168787878761239a565b6115c56040518060a00160405280336001600160a01b03168152602001875f015160020b8152602001876020015160020b815260200161159f886040015161242a565b600f0b8152606089015160020b6020918201525f8481526008909152604090209061244f565b91506115d18683611e1e565b845160208601516040808801519051339385937f541c041c2cce48e614b3de043c9280f06b6164c0a1741649e2de3c3d375f79749361162893600293840b81529190920b6020820152604081019190915260600190565b60405180910390a3608086015161164c906001600160a01b0316878785888861286c565b50949350505050565b5f610ecf611a79565b5f611667611a2e565b61166f611a79565b61168c5760405163eab072a760e01b815260040160405180910390fd5b5f61169686611c77565b90506116a181611ca6565b60808601516116bc906001600160a01b031687878787612900565b5f806116c66148d9565b61172660405180608001604052808b6060015160020b81526020018a5f0151151581526020018a6020015181526020018a604001516001600160a01b031681525060085f8781526020019081526020015f2061293490919063ffffffff16565b9297509094509250905061173a8986611e1e565b8215611779578260015f8a5f0151611756578b60200151611759565b8b515b6001600160a01b0316815260208101919091526040015f20805490910190555b33847f40e9cecb9f5f1f1c5b9c97dec2917b7ee92e57ba5563708daca94dd84ad7112f6117a68860801c90565b60408581015160a0808801516060808a01518551600f97880b8152968f900b60208801526001600160a01b03909416868601526001600160801b039091169085015260029190910b608084015262ffffff881690830152519081900360c00190a36080890151611823906001600160a01b03168a8a888b8b6130a0565b50505050949350505050565b611837611a2e565b61183f611a79565b61185c5760405163eab072a760e01b815260040160405180910390fd5b6118698261125f83611aad565b610bc18383836130d6565b5f336001600160a01b038616148015906118b157506001600160a01b0385165f90815260036020908152604080832033845290915290205460ff16155b15611921576001600160a01b0385165f90815260056020908152604080832033845282528083208684529091529020545f19811461191f576118f38382614f8b565b6001600160a01b0387165f90815260056020908152604080832033845282528083208884529091529020555b505b6001600160a01b0385165f90815260046020908152604080832086845290915281208054849290611953908490614f8b565b90915550506001600160a01b0384165f9081526004602090815260408083208684529091528120805484929061198a908490614f9e565b9091555050604080513381526020810184905284916001600160a01b0380881692908916915f805160206154d6833981519152910160405180910390a4506001949350505050565b6040805160609490941b6bffffffffffffffffffffffff191660208086019190915260e893841b60348601529190921b60378401528151601a818503018152603a90930182528251928101929092205f90815292909152902090565b306001600160a01b037f00000000000000000000000000000000000000000000000000000000000000001614611a77576040516306c4a1c760e11b815260040160405180910390fd5b565b5f80611aa660017f3e061da06d9da7c1d2a497a320750161d58a0fc1d9a008f9c4f3d1606155d86f614f8b565b5c92915050565b5f60016001607f1b03821115611ad6576040516393dafdf160e01b815260040160405180910390fd5b5090565b80600f0b5f03611ae8575050565b335f9081526006602090815260408083206001600160a01b038616845290915281205490611b1a600f84900b836150c4565b9050805f03611b3057611b2b613194565b611b3f565b815f03611b3f57611b3f6131ce565b335f9081526006602090815260408083206001600160a01b0397909716835295905293909320929092555050565b5f6001600160a01b038416611ba9575f805f8085875af1905080611ba457604051633d2cec6f60e21b815260040160405180910390fd5b611bff565b60405163a9059cbb60e01b5f52836004528260245260205f60445f80895af13d15601f3d1160015f511416171691505f606052806040525080611bff57604051633c9fd93960e21b815260040160405180910390fd5b50505050565b6001600160a01b0383165f90815260046020908152604080832085845290915281208054839290611c37908490614f9e565b9091555050604080513381526020810183905283916001600160a01b038616915f915f805160206154d683398151915291015b60405180910390a4505050565b5f81604051602001611c89919061512e565b604051602081830303815290604052805190602001209050919050565b5f818152600860205260409020546001600160a01b0316611cda5760405163486aa30760e01b815260040160405180910390fd5b50565b6080850151600160971b1615611d5557611d5563b6a8b0fa60e01b338787878787604051602401611d139695949392919061513c565b60408051601f198184030181529190526020810180516001600160e01b03166001600160e01b0319909316929092179091526001600160a01b03881690613208565b505050505050565b60038301545f906001600160801b03168103611d8c5760405163a74f97ab60e01b815260040160405180910390fd5b611db4611d9884611aad565b611da184611aad565b6001600160801b031660809190911b1790565b90508215611de7576003840154611ddb908490600160801b906001600160801b031661324c565b60018501805490910190555b8115610b3a576003840154611e0c908390600160801b906001600160801b031661324c565b60028501805490910190559392505050565b8151611e2e90610b7b8360801c90565b611e3d8260200151610b7b8390565b5050565b6080850151600160961b1615611d5557611d5563e1b4af6960e01b338787878787604051602401611d139695949392919061513c565b5f80611aa660017f7d4b3164c6e45b97e7d87b7125a44c5828d005af88f9d751cfd78729c5d99a0c614f8b565b5f6001600160a01b03831615611edd57600160961b836001600160a01b0316101580611ed857506280000082161515610b3a565b610b3a565b50628000001615919050565b5f62800000821615611efc57505f919050565b50627fffff8116611f0c816122e6565b919050565b6001609f1b851615611f8357611f83633440d82060e01b3386868686604051602401611f41959493929190615179565b60408051601f198184030181529190526020810180516001600160e01b03166001600160e01b0319909316929092179091526001600160a01b03871690613208565b5050505050565b6002545f9081906001600160a01b031615612104577f00000000000000000000000000000000000000000000000000000000000000005a1015611fe057604051630f724b8160e11b815260040160405180910390fd5b6002546040515f9182916001600160a01b03909116907f00000000000000000000000000000000000000000000000000000000000000009063553bfc3760e01b9061202f90899060240161512e565b60408051601f198184030181529181526020820180516001600160e01b03166001600160e01b031990941693909317909252905161206d91906151c0565b5f604051808303815f8787f1925050503d805f81146120a7576040519150601f19603f3d011682016040523d82523d5f602084013e6120ac565b606091505b50915091508115806120bf575060208151115b156120d057505f9485945092505050565b602081015161ffff8116811480156120ec57506120ec816132e8565b6120f7575f806120fb565b6001815b90955093505050505b915091565b83545f906001600160a01b03161561213457604051637983c05160e01b815260040160405180910390fd5b61213d84613357565b604080516080810182526001600160a01b0396909616808752600283900b602088015261ffff9590951690860181905262ffffff938416606090960186905286546001600160b81b031916909417600160a01b938216939093029290921764ffffffffff60b81b1916600160b81b90930262ffffff60c81b191692909217600160c81b90930292909217909255919050565b6001609e1b861615611d5557611d5563a910f80f60e01b338787878787604051602401611d13969594939291906151db565b5f6001600160a01b038216612217575047919050565b6040516370a0823160e01b81523060048201526001600160a01b038316906370a0823190602401602060405180830381865afa158015612259573d5f803e3d5ffd5b505050506040513d601f19601f82011682018060405250810190610a189190615221565b5f6122a960017f3e061da06d9da7c1d2a497a320750161d58a0fc1d9a008f9c4f3d1606155d86f614f8b565b90506001815d50565b5f6122de60017f3e061da06d9da7c1d2a497a320750161d58a0fc1d9a008f9c4f3d1606155d86f614f8b565b90505f815d50565b620f424062ffffff821610611cda57604051637e2df70960e11b815260040160405180910390fd5b81546001600160a01b03166123365760405163486aa30760e01b815260040160405180910390fd5b815462ffffff909116600160c81b0262ffffff60c81b19909116179055565b81546001600160a01b031661237d5760405163486aa30760e01b815260040160405180910390fd5b815461ffff909116600160b81b0261ffff60b81b19909116179055565b5f83604001511380156123b6575060808401516001609d1b1615155b156123e4576123df63a6ab2a4360e01b3386868686604051602401611f41959493929190615238565b611f83565b5f836040015113158015612401575060808401516001609b1b1615155b15611f8357611f83632b58404e60e01b3386868686604051602401611f41959493929190615238565b80600f81900b8114611f0c576040516393dafdf160e01b815260040160405180910390fd5b5f6124628260200151836040015161365c565b6040805160c0810182525f80825260208201819052918101829052606081018290526080810182905260a0810182905281906060850151600f0b156125e1576124b586866020015187606001515f6136f8565b6001600160801b0316602083015215158152604085015160608601516124de91889160016136f8565b6001600160801b031660608084019190915290151560408301528501515f600f9190910b13156125a0575f61251686608001516137cf565b9050806001600160801b031682602001516001600160801b0316111561255b57602086015160405163b8e3c38560e01b815260029190910b60048201526024016110bd565b806001600160801b031682606001516001600160801b0316111561259e57604080870151905163b8e3c38560e01b815260029190910b60048201526024016110bd565b505b8051156125bf57602085015160808601516125bf9160058901916137fc565b8060400151156125e157604085015160808601516125e19160058901916137fc565b6125f48686602001518760400151613899565b60a083018190526080830182905260608701518751602089015160408a0151612630959394926126289260068e01926119d2565b92919061394f565b80935081945050505f8560600151600f0b12156126aa5780511561267a5761267a868660200151600290810b5f908152600490920160205260408220828155600181018390550155565b8060400151156126aa57604080860151600290810b5f908152600489016020529182208281556001810183905501555b506060840151600f0b156128455760208401518554600291820b600160a01b90910490910b121561271d576127168361271161270b6127066126ef8960200151613a72565b6126fc8a60400151613a72565b8a60600151613d8d565b61242a565b60801b90565b613dc8565b9250612845565b60408401518554600291820b600160a01b90910490910b121561281057845460408501516127919185916127119161276691612706916001600160a01b0316906126fc90613a72565b611da16127066127798a60200151613a72565b8b5460608c01516001600160a01b0390911690613df4565b92505f8460600151600f0b126127c357606084015160038601546127be91906001600160801b031661528d565b6127e9565b83606001516127d190614fc8565b60038601546127e991906001600160801b03166152b4565b6003860180546001600160801b0319166001600160801b0392909216919091179055612845565b612842836127115f611da161270661282b8a60200151613a72565b6128388b60400151613a72565b8b60600151613df4565b92505b6128638361285e61285585611aad565b611da185611aad565b613e20565b95945050505050565b5f8460400151138015612888575060808501516001609c1b1615155b156128b8576128b363b505b4ce60e01b338787878787604051602401611d13969594939291906152d4565b611d55565b5f8460400151131580156128d5575060808501516001609a1b1615155b15611d5557611d5563c3d5d4e660e01b338787878787604051602401611d13969594939291906152d4565b6080840151600160991b1615611f8357611f8363575e24b460e01b3386868686604051602401611f41959493929190615330565b5f805f61293f6148d9565b84604001515f036129635760405163be8b850760e01b815260040160405180910390fd5b6040805160808101825287546001600160a01b0381168252600160a01b810460020b602080840191909152600160b81b820461ffff1693830193909352600160c81b900462ffffff1660608201819052918701519193509015612a6457805f01516001600160a01b031686606001516001600160a01b031610612a135780516060870151604051637c9c6e8f60e01b81526001600160a01b039283166004820152911660248201526044016110bd565b6401000276a36001600160a01b031686606001516001600160a01b031611612a5f576060860151604051639e4d7cc760e01b81526001600160a01b0390911660048201526024016110bd565b612b12565b805f01516001600160a01b031686606001516001600160a01b031611612ab75780516060870151604051637c9c6e8f60e01b81526001600160a01b039283166004820152911660248201526044016110bd565b73fffd8963efd1fc6a506488495d951d5263988d266001600160a01b031686606001516001600160a01b031610612b12576060860151604051639e4d7cc760e01b81526001600160a01b0390911660048201526024016110bd565b6040805180820190915260038801546001600160801b031681526020878101515f9291820190612b4e576008846040015161ffff16901c612b60565b6101008460400151612b60919061538d565b60ff1681525090505f8088604001511390506040518060c00160405280896040015181526020015f8152602001845f01516001600160a01b03168152602001846020015160020b81526020018960200151612bbf578a60020154612bc5565b8a600101545b815283516001600160801b03166020918201526040805160e0810182525f808252928101839052908101829052606081018290526080810182905260a0810182905260c08101919091529094505b845115801590612c3d575088606001516001600160a01b031685604001516001600160a01b031614155b15612f935760408501516001600160a01b031681526060850151895160208b0151612c6e9260058e01929091613e4c565b1515604083015260020b60208201819052620d89e7191315612c9957620d89e7196020820152612ccd565b612ca6620d89e7196153ad565b60020b816020015160020b1315612ccd57612cc4620d89e7196153ad565b60020b60208201525b612cda8160200151613a72565b6001600160a01b03166060820152604085015160208a0151612d5c9190612d1d578a606001516001600160a01b031683606001516001600160a01b031611612d3b565b8a606001516001600160a01b031683606001516001600160a01b0316105b612d49578260600151612d4f565b8a606001515b60a088015188518a613f86565b60c085015260a084015260808301526001600160a01b031660408601528115612dbe57612d928160c0015182608001510161416e565b855103855260a0810151612da59061416e565b8560200151612db491906153c5565b6020860152612e01565b612dcb8160a0015161416e565b855101855260c08101516080820151612dec91612de791614f9e565b61416e565b8560200151612dfb91906150c4565b60208601525b602083015160ff1615612e38575f836020015160ff168260c00151612e2691906153e4565b60c08301805182900390529790970196505b60a08501516001600160801b031615612e7757612e6b8160c00151600160801b8760a001516001600160801b031661324c565b60808601805190910190525b80606001516001600160a01b031685604001516001600160a01b031603612f6157806040015115612f38575f612ee28b83602001518c60200151612ebf578d60010154612ec5565b88608001515b8d60200151612ed8578960800151614197565b8e60020154614197565b9050896020015115612ef1575f035b5f81600f0b12612f1057808660a00151612f0b919061528d565b612f28565b612f1981614fc8565b8660a00151612f2891906152b4565b6001600160801b031660a0870152505b8860200151612f4b578060200151612f54565b60018160200151035b60020b6060860152612c13565b805f01516001600160a01b031685604001516001600160a01b031614612f8e57612f548560400151613357565b612c13565b604085015160608601518b546001600160b81b031916600160a01b62ffffff909216919091026001600160a01b031916176001600160a01b03909116178a5560a085015183516001600160801b039182169116146130125760a085015160038b0180546001600160801b0319166001600160801b039092169190911790555b88602001511561302b57608085015160018b0155613036565b608085015160028b01555b811515896020015115150361306e5761306761305a865f01518b604001510361242a565b611da1876020015161242a565b9750613093565b61309061307e866020015161242a565b611da1875f01518c604001510361242a565b97505b5050505092959194509250565b6080850151600160981b1615611d5557611d5563b47b2fb160e01b338787878787604051602401611d13969594939291906153f7565b336001600160a01b038416811480159061311557506001600160a01b038085165f9081526003602090815260408083209385168352929052205460ff16155b15613189576001600160a01b038085165f9081526005602090815260408083209385168352928152828220868352905220545f198114613187576131598382614f8b565b6001600160a01b038087165f9081526005602090815260408083209387168352928152828220888352905220555b505b611bff8484846141d2565b5f6131c060017f7d4b3164c6e45b97e7d87b7125a44c5828d005af88f9d751cfd78729c5d99a0c614f8b565b90505f19815c0180825d5050565b5f6131fa60017f7d4b3164c6e45b97e7d87b7125a44c5828d005af88f9d751cfd78729c5d99a0c614f8b565b90506001815c0180825d5050565b5f80613214848461423b565b91509150816001600160e01b031916816001600160e01b03191614611bff57604051631e048e1d60e01b815260040160405180910390fd5b5f838302815f198587098281108382030391505080841161326b575f80fd5b805f0361327d57508290049050610b3a565b5f848688095f868103871696879004966002600389028118808a02820302808a02820302808a02820302808a02820302808a02820302808a02909103029181900381900460010186841190950394909402919094039290920491909117919091029150509392505050565b5f61ffff82161561334f575f6133006101008461538d565b905060ff600884901c1661ffff8216158015906133215750600461ffff8316105b8061333e575061ffff81161580159061333e5750600461ffff8216105b1561334c57505f9392505050565b50505b506001919050565b5f6401000276a36001600160a01b0383161080613391575073fffd8963efd1fc6a506488495d951d5263988d266001600160a01b03831610155b156133af5760405163015680db60e11b815260040160405180910390fd5b640100000000600160c01b03602083901b166001600160801b03811160071b81811c67ffffffffffffffff811160061b90811c63ffffffff811160051b90811c61ffff811160041b90811c60ff8111600390811b91821c600f811160021b90811c918211600190811b92831c9790881196179094179092171790911717176080811061344357607f810383901c915061344d565b80607f0383901b91505b908002607f81811c60ff83811c9190911c800280831c81831c1c800280841c81841c1c800280851c81851c1c800280861c81861c1c800280871c81871c1c800280881c81881c1c800280891c81891c1c8002808a1c818a1c1c8002808b1c818b1c1c8002808c1c818c1c1c8002808d1c818d1c1c8002808e1c9c81901c9c909c1c80029c8d901c9e9d607f198f0160401b60c09190911c678000000000000000161760c19b909b1c674000000000000000169a909a1760c29990991c672000000000000000169890981760c39790971c671000000000000000169690961760c49590951c670800000000000000169490941760c59390931c670400000000000000169290921760c69190911c670200000000000000161760c79190911c670100000000000000161760c89190911c6680000000000000161760c99190911c6640000000000000161760ca9190911c6620000000000000161760cb9190911c6610000000000000161760cc9190911c6608000000000000161760cd9190911c66040000000000001617693627a301d71055774c8581026f028f6481ab7f045a5af012a19d003aa9198101608090811d906fdb2df09e81959a81455e260799a0632f8301901d600281810b9083900b1461364d57886001600160a01b031661363282613a72565b6001600160a01b03161115613647578161364f565b8061364f565b815b9998505050505050505050565b8060020b8260020b126136905760405163c4433ed560e01b8152600283810b600483015282900b60248201526044016110bd565b620d89e719600283900b12156136bf5760405163d5e2f7ab60e01b8152600283900b60048201526024016110bd565b6136cc620d89e7196153ad565b60020b8160020b1315611e3d5760405163035aeeff60e31b8152600282900b60048201526024016110bd565b600283900b5f908152600485016020526040812080548291906001600160801b0381169060801c600f87900b841361373957613734878361528d565b61374c565b61374287614fc8565b61374c90836152b4565b6001600160801b03808216159084168015919091141596509094505f03613799578854600160a01b9004600290810b9089900b13613799576001808a0154908401556002808a0154908401555b5f866137ae576137a98883615440565b6137b8565b6137b8888361546d565b90508060801b851784555050505094509492505050565b5f621b13d08201600290810b9083900b6001600160801b0302816137f5576137f5615379565b0492915050565b8060020b8260020b8161381157613811615379565b0760020b1561384157604051636a6c79f360e11b8152600283810b600483015282900b60248201526044016110bd565b5f8061386e8360020b8560020b8161385b5761385b615379565b0560020b600881901d9161010090910790565b600191820b5f9081526020979097526040909620805460ff9097169190911b90951890945550505050565b600282810b5f81815260048601602052604080822085850b835290822087549294859492939192600160a01b909204900b908112156138f1578160010154836001015403945081600201548360020154039350613944565b8560020b8160020b1261391d578260010154826001015403945082600201548260020154039350613944565b81600101548360010154896001015403039450816002015483600201548960020154030393505b505050935093915050565b6040805160608101825285546001600160801b03168152600186015460208201526002860154918101919091525f90819081600f87900b81036139be5781516001600160801b03165f036139b657604051632bbfae4960e21b815260040160405180910390fd5b5080516139f2565b5f87600f0b126139da5781516139d590889061528d565b6139ef565b6139e387614fc8565b82516139ef91906152b4565b90505b613a1382602001518703835f01516001600160801b0316600160801b61324c565b9350613a3682604001518603835f01516001600160801b0316600160801b61324c565b925086600f0b5f14613a5c5787546001600160801b0319166001600160801b0382161788555b5050600186019390935560029094015591929050565b5f805f8360020b12613a87578260020b613a8e565b8260020b5f035b9050620d89e8811115613ab4576040516333a3bdff60e21b815260040160405180910390fd5b5f816001165f03613ac957600160801b613adb565b6ffffcb933bd6fad37aa2d162d1a5940015b70ffffffffffffffffffffffffffffffffff1690506002821615613b0f576ffff97272373d413259a46990580e213a0260801c5b6004821615613b2e576ffff2e50f5f656932ef12357cf3c7fdcc0260801c5b6008821615613b4d576fffe5caca7e10e4e61c3624eaa0941cd00260801c5b6010821615613b6c576fffcb9843d60f6159c9db58835c9266440260801c5b6020821615613b8b576fff973b41fa98c081472e6896dfb254c00260801c5b6040821615613baa576fff2ea16466c96a3843ec78b326b528610260801c5b6080821615613bc9576ffe5dee046a99a2a811c461f1969c30530260801c5b610100821615613be9576ffcbe86c7900a88aedcffc83b479aa3a40260801c5b610200821615613c09576ff987a7253ac413176f2b074cf7815e540260801c5b610400821615613c29576ff3392b0822b70005940c7a398e4b70f30260801c5b610800821615613c49576fe7159475a2c29b7443b29c7fa6e889d90260801c5b611000821615613c69576fd097f3bdfd2022b8845ad8f792aa58250260801c5b612000821615613c89576fa9f746462d870fdf8a65dc1f90e061e50260801c5b614000821615613ca9576f70d869a156d2a1b890bb3df62baf32f70260801c5b618000821615613cc9576f31be135f97d08fd981231505542fcfa60260801c5b62010000821615613cea576f09aa508b5b7a84e1c677de54f3e99bc90260801c5b62020000821615613d0a576e5d6af8dedb81196699c329225ee6040260801c5b62040000821615613d29576d2216e584f5fa1ea926041bedfe980260801c5b62080000821615613d46576b048a170391f7dc42444e8fa20260801c5b5f8460020b1315613d6557805f1981613d6157613d61615379565b0490505b640100000000810615613d79576001613d7b565b5f5b60ff16602082901c0192505050919050565b5f8082600f0b12613dad57613da8612de785858560016142ce565b610a92565b613dbe612de78585855f035f6142ce565b5f03949350505050565b5f610b3a613dd68360801c90565b613de08560801c90565b613dea9190615440565b611da18486615440565b5f8082600f0b12613e0f57613da8612de78585856001614399565b613dbe612de78585855f035f614399565b5f610b3a613e2e8360801c90565b613e388560801c90565b613e42919061546d565b611da1848661546d565b5f805f8460020b8660020b81613e6457613e64615379565b0590505f8660020b128015613e9057508460020b8660020b81613e8957613e89615379565b0760020b15155b15613e99575f19015b8315613f0b57600281900b600881901d600181810b5f90815260208b9052604090205461010090930760ff81169190911b80015f190192831680151595509192909185613eed57888360ff16860302613f00565b88613ef782614416565b840360ff168603025b965050505050613f7c565b600181810160020b600881901d80830b5f90815260208b9052604090205461010090920760ff81169390931b5f19011991821680151595509092919085613f5f57888360ff0360ff16866001010102613f75565b8883613f6a836144b4565b0360ff168660010101025b9650505050505b5094509492505050565b5f8080806001600160a01b03808916908a161015818712801590614009575f613fbd8989620f42400362ffffff16620f424061324c565b905082613fd657613fd18c8c8c6001614399565b613fe3565b613fe38b8d8c60016142ce565b9550858110613ff4578a9650614003565b6140008c8b838661459b565b96505b5061404f565b8161401f5761401a8b8b8b5f6142ce565b61402b565b61402b8a8c8b5f614399565b935083885f031061403e5789955061404f565b61404c8b8a8a5f03856145f6565b95505b6001600160a01b038a81169087161482156140b15780801561406e5750815b6140845761407f878d8c60016142ce565b614086565b855b9550808015614093575081155b6140a8576140a3878d8c5f614399565b6140aa565b845b94506140fa565b8080156140bb5750815b6140d1576140cc8c888c6001614399565b6140d3565b855b95508080156140e0575081155b6140f5576140f08c888c5f6142ce565b6140f7565b845b94505b811580156141095750885f0385115b1561411457885f0394505b81801561413357508a6001600160a01b0316876001600160a01b031614155b1561414257858903935061415f565b61415c868962ffffff168a620f42400362ffffff1661464f565b93505b50505095509550955095915050565b5f6001600160ff1b03821115611ad6576040516393dafdf160e01b815260040160405180910390fd5b600292830b5f90815260049094016020526040909320600181018054909203909155908101805490920390915554600160801b9004600f0b90565b6001600160a01b0383165f90815260046020908152604080832085845290915281208054839290614204908490614f8b565b9091555050604080513381526020810183905283915f916001600160a01b038716915f805160206154d68339815191529101611c6a565b5f80602083015191505f80856001600160a01b03168560405161425e91906151c0565b5f604051808303815f865af19150503d805f8114614297576040519150601f19603f3d011682016040523d82523d5f602084013e61429c565b606091505b5091509150816142af576142af8161468b565b808060200190518101906142c3919061549a565b925050509250929050565b5f836001600160a01b0316856001600160a01b031611156142ed579293925b600160601b600160e01b03606084901b166001600160a01b0386860381169087165f0361432c5760405162bfc92160e01b815260040160405180910390fd5b8361436257866001600160a01b031661434f8383896001600160a01b031661324c565b8161435c5761435c615379565b0461438e565b61438e6143798383896001600160a01b031661464f565b886001600160a01b0316808204910615150190565b979650505050505050565b5f836001600160a01b0316856001600160a01b031611156143b8579293925b816143ec576143e76001600160801b0384166143d487876154b5565b6001600160a01b0316600160601b61324c565b612863565b6128636001600160801b03841661440387876154b5565b6001600160a01b0316600160601b61464f565b5f808211614422575f80fd5b600160801b821061443557608091821c91015b68010000000000000000821061444d57604091821c91015b640100000000821061446157602091821c91015b62010000821061447357601091821c91015b610100821061448457600891821c91015b6010821061449457600491821c91015b600482106144a457600291821c91015b60028210611f0c57600101919050565b5f8082116144c0575f80fd5b5060ff6001600160801b038216156144db57607f19016144e3565b608082901c91505b67ffffffffffffffff8216156144fc57603f1901614504565b604082901c91505b63ffffffff82161561451957601f1901614521565b602082901c91505b61ffff82161561453457600f190161453c565b601082901c91505b60ff82161561454e5760071901614556565b600882901c91505b600f8216156145685760031901614570565b600482901c91505b6003821615614582576001190161458a565b600282901c91505b6001821615611f0c575f1901919050565b5f6001600160a01b03851615806145b957506001600160801b038416155b156145d7576040516309e48c3760e31b815260040160405180910390fd5b816145e9576143e785858560016146b4565b61286385858560016147ab565b5f6001600160a01b038516158061461457506001600160801b038416155b15614632576040516309e48c3760e31b815260040160405180910390fd5b81614643576143e78585855f6147ab565b6128638585855f6146b4565b5f61465b84848461324c565b90505f828061466c5761466c615379565b8486091115610b3a575f198110614681575f80fd5b6001019392505050565b80515f036146ac576040516336bc48c560e01b815260040160405180910390fd5b805181602001fd5b5f8115614724575f6001600160a01b038411156146e8576146e384600160601b876001600160801b031661324c565b6146ff565b6146ff6001600160801b038616606086901b6153e4565b905061471c614717826001600160a01b038916614f9e565b6148af565b915050610a92565b5f6001600160a01b038411156147515761474c84600160601b876001600160801b031661464f565b61476e565b61476e606085901b6001600160801b038716808204910615150190565b905080866001600160a01b03161161479957604051634323a55560e01b815260040160405180910390fd5b6001600160a01b038616039050610a92565b5f825f036147ba575083610a92565b600160601b600160e01b03606085901b16821561484c576001600160a01b038616848102908582816147ee576147ee615379565b040361481e5781810182811061481c5761481283896001600160a01b03168361464f565b9350505050610a92565b505b5061471c81856148376001600160a01b038a16836153e4565b6148419190614f9e565b808204910615150190565b6001600160a01b0386168481029085828161486957614869615379565b041415806148775750808211155b156148955760405163f5c787f160e01b815260040160405180910390fd5b808203614812614717846001600160a01b038b168461464f565b806001600160a01b0381168114611f0c576040516393dafdf160e01b815260040160405180910390fd5b6040518060c001604052805f81526020015f81526020015f6001600160a01b031681526020015f60020b81526020015f81526020015f6001600160801b031681525090565b6001600160a01b0381168114611cda575f80fd5b5f8060408385031215614943575f80fd5b823561494e8161491e565b946020939093013593505050565b6001600160e01b031981168114611cda575f80fd5b5f60208284031215614981575f80fd5b8135610b3a8161495c565b8035600281900b8114611f0c575f80fd5b5f805f80608085870312156149b0575f80fd5b8435935060208501356149c28161491e565b92506149d06040860161498c565b91506149de6060860161498c565b905092959194509250565b5f805f606084860312156149fb575f80fd5b8335614a068161491e565b95602085013595506040909401359392505050565b5f805f60608486031215614a2d575f80fd5b8335614a388161491e565b92506020840135614a488161491e565b929592945050506040919091013590565b5f60208284031215614a69575f80fd5b8135610b3a8161491e565b5f60208284031215614a84575f80fd5b5035919050565b634e487b7160e01b5f52604160045260245ffd5b6040516060810167ffffffffffffffff81118282101715614ac257614ac2614a8b565b60405290565b803562ffffff81168114611f0c575f80fd5b5f60a08284031215614aea575f80fd5b60405160a0810181811067ffffffffffffffff82111715614b0d57614b0d614a8b565b6040529050808235614b1e8161491e565b81526020830135614b2e8161491e565b6020820152614b3f60408401614ac8565b6040820152614b506060840161498c565b60608201526080830135614b638161491e565b6080919091015292915050565b5f8083601f840112614b80575f80fd5b50813567ffffffffffffffff811115614b97575f80fd5b602083019150836020828501011115614bae575f80fd5b9250929050565b5f805f805f6101008688031215614bca575f80fd5b614bd48787614ada565b945060a0860135935060c0860135925060e086013567ffffffffffffffff811115614bfd575f80fd5b614c0988828901614b70565b969995985093965092949392505050565b5f8060408385031215614c2b575f80fd5b50508035926020909101359150565b5f5b83811015614c54578181015183820152602001614c3c565b50505f910152565b602081525f8251806020840152614c7a816040850160208701614c3a565b601f01601f19169190910160400192915050565b80358015158114611f0c575f80fd5b5f8060408385031215614cae575f80fd5b8235614cb98161491e565b9150614cc760208401614c8e565b90509250929050565b5f8060408385031215614ce1575f80fd5b82359150614cc76020840161498c565b5f805f8060e08587031215614d04575f80fd5b614d0e8686614ada565b935060a0850135614d1e8161491e565b925060c085013567ffffffffffffffff811115614d39575f80fd5b614d4587828801614b70565b95989497509550505050565b5f8060408385031215614d62575f80fd5b8235915060208301358060010b8114614d79575f80fd5b809150509250929050565b5f8060208385031215614d95575f80fd5b823567ffffffffffffffff811115614dab575f80fd5b614db785828601614b70565b90969095509350505050565b5f8060c08385031215614dd4575f80fd5b614dde8484614ada565b9150614cc760a08401614ac8565b5f8060408385031215614dfd575f80fd5b8235614e088161491e565b91506020830135614d798161491e565b5f60a08284031215614e28575f80fd5b610b3a8383614ada565b5f805f80848603610120811215614e47575f80fd5b614e518787614ada565b94506060609f1982011215614e64575f80fd5b50614e6d614a9f565b614e7960a0870161498c565b8152614e8760c0870161498c565b602082015260e08601356040820152925061010085013567ffffffffffffffff811115614d39575f80fd5b5f805f80848603610120811215614ec7575f80fd5b614ed18787614ada565b94506060609f1982011215614ee4575f80fd5b50614eed614a9f565b614ef960a08701614c8e565b815260c0860135602082015260e0860135614f138161491e565b6040820152925061010085013567ffffffffffffffff811115614d39575f80fd5b5f805f8060808587031215614f47575f80fd5b8435614f528161491e565b93506020850135614f628161491e565b93969395505050506040820135916060013590565b634e487b7160e01b5f52601160045260245ffd5b81810381811115610a1857610a18614f77565b80820180821115610a1857610a18614f77565b8082028115828204841417610a1857610a18614f77565b5f81600f0b60016001607f1b03198103614fe457614fe4614f77565b5f0392915050565b81835281816020850137505f828201602090810191909152601f909101601f19169091010190565b602081525f610a92602083018486614fec565b5f60208284031215615037575f80fd5b815167ffffffffffffffff8082111561504e575f80fd5b818401915084601f830112615061575f80fd5b81518181111561507357615073614a8b565b604051601f8201601f19908116603f0116810190838211818310171561509b5761509b614a8b565b816040528281528760208487010111156150b3575f80fd5b61438e836020830160208801614c3a565b8082018281125f8312801582168215821617156150e3576150e3614f77565b505092915050565b80516001600160a01b03908116835260208083015182169084015260408083015162ffffff169084015260608083015160020b9084015260809182015116910152565b60a08101610a1882846150eb565b6001600160a01b03871681525f61012061515960208401896150eb565b8660c08401528560e08401528061010084015261364f8184018587614fec565b6001600160a01b0386811682525f906101009061519960208501896150eb565b861660c084015260e083018190526151b48184018587614fec565b98975050505050505050565b5f82516151d1818460208701614c3a565b9190910192915050565b6001600160a01b0387811682525f90610120906151fb602085018a6150eb565b80881660c0850152508560020b60e08401528061010084015261364f8184018587614fec565b5f60208284031215615231575f80fd5b5051919050565b6001600160a01b03861681525f61014061525560208401886150eb565b8551600290810b60c08501526020870151900b60e084015260408601516101008401525b806101208401526151b48184018587614fec565b6001600160801b038181168382160190808211156152ad576152ad614f77565b5092915050565b6001600160801b038281168282160390808211156152ad576152ad614f77565b6001600160a01b03871681525f6101606152f160208401896150eb565b8651600290810b60c08501526020880151900b60e084015260408701516101008401525b856101208401528061014084015261364f8184018587614fec565b6001600160a01b03861681525f61014061534d60208401886150eb565b8551151560c0840152602086015160e084015260408601516001600160a01b0316610100840152615279565b634e487b7160e01b5f52601260045260245ffd5b5f61ffff808416806153a1576153a1615379565b92169190910692915050565b5f8160020b627fffff198103614fe457614fe4614f77565b8181035f8312801583831316838312821617156152ad576152ad614f77565b5f826153f2576153f2615379565b500490565b6001600160a01b03871681525f61016061541460208401896150eb565b8651151560c0840152602087015160e084015260408701516001600160a01b0316610100840152615315565b600f81810b9083900b0160016001607f1b03811360016001607f1b031982121715610a1857610a18614f77565b600f82810b9082900b0360016001607f1b0319811260016001607f1b0382131715610a1857610a18614f77565b5f602082840312156154aa575f80fd5b8151610b3a8161495c565b6001600160a01b038281168282160390808211156152ad576152ad614f7756fe1b3d7edb2e9c0b0e7c525b20aaaef0f5940d2ed71663c7d39266ecafac728859a26469706673582212202823d7f135f064d42cad0ff0d498a8055fb5fcb400addfb57e1119563abfa37964736f6c63430008180033","linkReferences":{}},"methodIdentifiers":{"MAX_TICK_SPACING()":"60460f06","MIN_PROTOCOL_FEE_DENOMINATOR()":"84e41c5e","MIN_TICK_SPACING()":"07eff0dd","allowance(address,address,uint256)":"598af9e7","approve(address,uint256,uint256)":"426a8493","balanceOf(address,uint256)":"00fdd58e","burn(address,uint256,uint256)":"f5298aca","collectProtocolFees(address,address,uint256)":"8161b874","currencyDelta(address,address)":"a54b2831","donate((address,address,uint24,int24,address),uint256,uint256,bytes)":"234266d7","extsload(bytes32)":"1e2eaeaf","extsload(bytes32,uint256)":"35fd631a","getLiquidity(bytes32)":"fa6793d5","getLiquidity(bytes32,address,int24,int24)":"33aa955b","getLockNonzeroDeltaCount()":"46063d05","getPoolBitmapInfo(bytes32,int16)":"7c352ef6","getPoolTickInfo(bytes32,int24)":"5aa208a4","getPosition(bytes32,address,int24,int24)":"048d9c70","getSlot0(bytes32)":"c815641c","initialize((address,address,uint24,int24,address),uint160,bytes)":"695c5bf5","isLockSet()":"d9b054b4","isOperator(address,address)":"b6363cf2","lock(bytes)":"81548319","mint(address,uint256,uint256)":"156e29f6","modifyLiquidity((address,address,uint24,int24,address),(int24,int24,int256),bytes)":"bec999dd","owner()":"8da5cb5b","pools(bytes32)":"b5217bb4","protocolFeeController()":"f02de3b2","protocolFeesAccrued(address)":"97e8cd4e","reservesOf(address)":"93c85a21","setOperator(address,bool)":"558a7297","setOwner(address)":"13af4035","setProtocolFee((address,address,uint24,int24,address))":"b02375ce","setProtocolFeeController(address)":"2d771389","settle(address)":"6a256b29","supportsInterface(bytes4)":"01ffc9a7","swap((address,address,uint24,int24,address),(bool,int256,uint160),bytes)":"f3cd914c","take(address,address,uint256)":"0b0d9c09","transfer(address,uint256,uint256)":"095bcdb6","transferFrom(address,address,uint256,uint256)":"fe99049a","updateDynamicSwapFee((address,address,uint24,int24,address),uint24)":"a412b9d8"},"id":21}