{"abi":[{"type":"function","name":"SQRT_RATIO_121_100","inputs":[],"outputs":[{"name":"","type":"uint160","internalType":"uint160"}],"stateMutability":"view"},{"type":"function","name":"SQRT_RATIO_1_1","inputs":[],"outputs":[{"name":"","type":"uint160","internalType":"uint160"}],"stateMutability":"view"},{"type":"function","name":"SQRT_RATIO_1_2","inputs":[],"outputs":[{"name":"","type":"uint160","internalType":"uint160"}],"stateMutability":"view"},{"type":"function","name":"SQRT_RATIO_1_4","inputs":[],"outputs":[{"name":"","type":"uint160","internalType":"uint160"}],"stateMutability":"view"},{"type":"function","name":"SQRT_RATIO_2_1","inputs":[],"outputs":[{"name":"","type":"uint160","internalType":"uint160"}],"stateMutability":"view"},{"type":"function","name":"SQRT_RATIO_4_1","inputs":[],"outputs":[{"name":"","type":"uint160","internalType":"uint160"}],"stateMutability":"view"}],"bytecode":{"object":"0x610110610035600b8282823980515f1a60731461002957634e487b7160e01b5f525f60045260245ffd5b305f52607381538281f3fe73000000000000000000000000000000000000000030146080604052600436106064575f3560e01c80630b84e81c14606857806377267b1e146096578063d1b7d6111460a0578063d6d2a04b1460aa578063dd431c4b1460bd578063e239ea421460c7575b5f80fd5b607a6bb504f333f9de6484597d89b381565b6040516001600160a01b03909116815260200160405180910390f35b607a600160601b81565b607a6001605f1b81565b607a6c016a09e667f3bcc908b2fb136681565b607a600160611b81565b607a6c011999999999999999999999998156fea26469706673582212201b4151246384471e8634c2ede5131cf2c66282baf6f7072ea483d1f81733a2c264736f6c63430008180033","linkReferences":{}},"methodIdentifiers":{"SQRT_RATIO_121_100()":"e239ea42","SQRT_RATIO_1_1()":"77267b1e","SQRT_RATIO_1_2()":"0b84e81c","SQRT_RATIO_1_4()":"d1b7d611","SQRT_RATIO_2_1()":"d6d2a04b","SQRT_RATIO_4_1()":"dd431c4b"},"id":59}