{"abi":[{"type":"function","name":"NATIVE","inputs":[],"outputs":[{"name":"","type":"address","internalType":"Currency"}],"stateMutability":"view"},{"type":"error","name":"ERC20TransferFailed","inputs":[]},{"type":"error","name":"NativeTransferFailed","inputs":[]}],"bytecode":{"object":"0x608e610033600b8282823980515f1a607314602757634e487b7160e01b5f525f60045260245ffd5b305f52607381538281f3fe73000000000000000000000000000000000000000030146080604052600436106032575f3560e01c8063a0cf0aea146036575b5f80fd5b603c5f81565b6040516001600160a01b03909116815260200160405180910390f3fea264697066735822122088ce650f1715cd9971150cf8c607f54ed2e2a2095f57bb2e5bdb63ecaf8b842564736f6c63430008180033","linkReferences":{}},"methodIdentifiers":{"NATIVE()":"a0cf0aea"},"id":56}