{"abi":[{"type":"constructor","inputs":[{"name":"_manager","type":"address","internalType":"contract IPoolManager"}],"stateMutability":"nonpayable"},{"type":"function","name":"deposit","inputs":[{"name":"currency","type":"address","internalType":"Currency"},{"name":"user","type":"address","internalType":"address"},{"name":"amount","type":"uint256","internalType":"uint256"}],"outputs":[],"stateMutability":"payable"},{"type":"function","name":"lockAcquired","inputs":[{"name":"rawData","type":"bytes","internalType":"bytes"}],"outputs":[{"name":"","type":"bytes","internalType":"bytes"}],"stateMutability":"nonpayable"},{"type":"function","name":"manager","inputs":[],"outputs":[{"name":"","type":"address","internalType":"contract IPoolManager"}],"stateMutability":"view"},{"type":"function","name":"withdraw","inputs":[{"name":"currency","type":"address","internalType":"Currency"},{"name":"user","type":"address","internalType":"address"},{"name":"amount","type":"uint256","internalType":"uint256"}],"outputs":[],"stateMutability":"payable"},{"type":"error","name":"SafeCastOverflow","inputs":[]}],"bytecode":{"object":"0x60a060405234801561000f575f80fd5b50604051610c9e380380610c9e83398101604081905261002e9161003f565b6001600160a01b031660805261006c565b5f6020828403121561004f575f80fd5b81516001600160a01b0381168114610065575f80fd5b9392505050565b608051610bcf6100cf5f395f818160530152818160e8015281816101ea0152818161022e015281816102f5015281816103da015281816104cd0152818161056801528181610609015281816106750152818161073001526107d20152610bcf5ff3fe60806040526004361061003e575f3560e01c8063481c6a75146100425780638340f54914610092578063ab6291fe146100a7578063d9caed12146100d3575b5f80fd5b34801561004d575f80fd5b506100757f000000000000000000000000000000000000000000000000000000000000000081565b6040516001600160a01b0390911681526020015b60405180910390f35b6100a56100a0366004610857565b6100e6565b005b3480156100b2575f80fd5b506100c66100c1366004610895565b6101dd565b6040516100899190610923565b6100a56100e1366004610857565b6103d8565b7f00000000000000000000000000000000000000000000000000000000000000006001600160a01b031663815483196040518060a00160405280336001600160a01b03168152602001856001600160a01b03168152602001866001600160a01b031681526020018481526020016001151581525060405160200161016a9190610955565b6040516020818303038152906040526040518263ffffffff1660e01b81526004016101959190610923565b5f604051808303815f875af11580156101b0573d5f803e3d5ffd5b505050506040513d5f823e601f3d908101601f191682016040526101d791908101906109b0565b50505050565b6060336001600160a01b037f00000000000000000000000000000000000000000000000000000000000000001614610213575f80fd5b5f61022083850185610a65565b90508060800151156102f3577f00000000000000000000000000000000000000000000000000000000000000006001600160a01b031663156e29f6826020015161027d84604001516001600160a01b03166001600160a01b031690565b84606001516040518463ffffffff1660e01b81526004016102a093929190610af2565b5f604051808303815f87803b1580156102b7575f80fd5b505af11580156102c9573d5f803e3d5ffd5b505050506102ee816040015182602001516102e7846060015161045b565b6001610488565b6103b5565b7f00000000000000000000000000000000000000000000000000000000000000006001600160a01b031663f5298aca826020015161034484604001516001600160a01b03166001600160a01b031690565b84606001516040518463ffffffff1660e01b815260040161036793929190610af2565b5f604051808303815f87803b15801561037e575f80fd5b505af1158015610390573d5f803e3d5ffd5b505050506103b5816040015182602001516103ae846060015161045b565b600161070e565b604080515f60208201520160405160208183030381529060405291505092915050565b7f00000000000000000000000000000000000000000000000000000000000000006001600160a01b031663815483196040518060a00160405280336001600160a01b03168152602001856001600160a01b03168152602001866001600160a01b031681526020018481526020015f151581525060405160200161016a9190610955565b5f60016001607f1b03821115610484576040516393dafdf160e01b815260040160405180910390fd5b5090565b5f82600f0b1361049a5761049a610b1c565b8015610673576001600160a01b03841661054957604051636a256b2960e01b81526001600160a01b0385811660048301527f00000000000000000000000000000000000000000000000000000000000000001690636a256b29906001600160801b0385169060240160206040518083038185885af115801561051e573d5f803e3d5ffd5b50505050506040513d601f19601f820116820180604052508101906105439190610b30565b506101d7565b6040516323b872dd60e01b81526001600160a01b0384811660048301527f0000000000000000000000000000000000000000000000000000000000000000811660248301526001600160801b03841660448301528516906323b872dd906064016020604051808303815f875af11580156105c5573d5f803e3d5ffd5b505050506040513d601f19601f820116820180604052508101906105e99190610b47565b50604051636a256b2960e01b81526001600160a01b0385811660048301527f00000000000000000000000000000000000000000000000000000000000000001690636a256b29906024016020604051808303815f875af115801561064f573d5f803e3d5ffd5b505050506040513d601f19601f820116820180604052508101906105439190610b30565b7f00000000000000000000000000000000000000000000000000000000000000006001600160a01b031663f5298aca846106bc876001600160a01b03166001600160a01b031690565b856040518463ffffffff1660e01b81526004016106db93929190610af2565b5f604051808303815f87803b1580156106f2575f80fd5b505af1158015610704573d5f803e3d5ffd5b5050505050505050565b5f82600f0b1261072057610720610b1c565b80156107d0576001600160a01b037f000000000000000000000000000000000000000000000000000000000000000016630b0d9c09858561076086610b69565b6040516001600160e01b031960e086901b1681526001600160a01b0393841660048201529290911660248301526001600160801b031660448201526064015f604051808303815f87803b1580156107b5575f80fd5b505af11580156107c7573d5f803e3d5ffd5b505050506101d7565b7f00000000000000000000000000000000000000000000000000000000000000006001600160a01b031663156e29f684610819876001600160a01b03166001600160a01b031690565b61082286610b69565b6040518463ffffffff1660e01b81526004016106db93929190610af2565b6001600160a01b0381168114610854575f80fd5b50565b5f805f60608486031215610869575f80fd5b833561087481610840565b9250602084013561088481610840565b929592945050506040919091013590565b5f80602083850312156108a6575f80fd5b823567ffffffffffffffff808211156108bd575f80fd5b818501915085601f8301126108d0575f80fd5b8135818111156108de575f80fd5b8660208285010111156108ef575f80fd5b60209290920196919550909350505050565b5f5b8381101561091b578181015183820152602001610903565b50505f910152565b602081525f8251806020840152610941816040850160208701610901565b601f01601f19169190910160400192915050565b81516001600160a01b039081168252602080840151821690830152604080840151909116908201526060808301519082015260809182015115159181019190915260a00190565b634e487b7160e01b5f52604160045260245ffd5b5f602082840312156109c0575f80fd5b815167ffffffffffffffff808211156109d7575f80fd5b818401915084601f8301126109ea575f80fd5b8151818111156109fc576109fc61099c565b604051601f8201601f19908116603f01168101908382118183101715610a2457610a2461099c565b81604052828152876020848701011115610a3c575f80fd5b610a4d836020830160208801610901565b979650505050505050565b8015158114610854575f80fd5b5f60a08284031215610a75575f80fd5b60405160a0810181811067ffffffffffffffff82111715610a9857610a9861099c565b6040528235610aa681610840565b81526020830135610ab681610840565b60208201526040830135610ac981610840565b6040820152606083810135908201526080830135610ae681610a58565b60808201529392505050565b6001600160a01b0393909316835260208301919091526001600160801b0316604082015260600190565b634e487b7160e01b5f52600160045260245ffd5b5f60208284031215610b40575f80fd5b5051919050565b5f60208284031215610b57575f80fd5b8151610b6281610a58565b9392505050565b5f81600f0b60016001607f1b03198103610b9157634e487b7160e01b5f52601160045260245ffd5b5f039291505056fea2646970667358221220587a16cb0b7a28b03abc7bc2b4eadd590a67242a9146c638889155988fbfdb1364736f6c63430008180033","linkReferences":{}},"methodIdentifiers":{"deposit(address,address,uint256)":"8340f549","lockAcquired(bytes)":"ab6291fe","manager()":"481c6a75","withdraw(address,address,uint256)":"d9caed12"},"id":47}