{"abi":[{"type":"receive","stateMutability":"payable"},{"type":"function","name":"LIQ_PARAMS","inputs":[],"outputs":[{"name":"tickLower","type":"int24","internalType":"int24"},{"name":"tickUpper","type":"int24","internalType":"int24"},{"name":"liquidityDelta","type":"int256","internalType":"int256"}],"stateMutability":"view"},{"type":"function","name":"MAX_PRICE_LIMIT","inputs":[],"outputs":[{"name":"","type":"uint160","internalType":"uint160"}],"stateMutability":"view"},{"type":"function","name":"MIN_PRICE_LIMIT","inputs":[],"outputs":[{"name":"","type":"uint160","internalType":"uint160"}],"stateMutability":"view"},{"type":"function","name":"REMOVE_LIQ_PARAMS","inputs":[],"outputs":[{"name":"tickLower","type":"int24","internalType":"int24"},{"name":"tickUpper","type":"int24","internalType":"int24"},{"name":"liquidityDelta","type":"int256","internalType":"int256"}],"stateMutability":"view"}],"bytecode":{"object":"0x6077196080819052607860a0819052670de0b6b3a764000060c08190525f80546378ffff8865ffffffffffff19918216811790925560019290925561014060405260e09390935261010091909152670de0b6b3a763ffff19610120819052600280549092169092179055600355348015610077575f80fd5b506101c8806100855f395ff3fe608060405260043610610041575f3560e01c8063542524dd1461004c578063636ccfd21461007d5780636d97c460146100c9578063c7b8e15d146100f1575f80fd5b3661004857005b5f80fd5b348015610057575f80fd5b50610060610105565b6040516001600160a01b0390911681526020015b60405180910390f35b348015610088575f80fd5b505f546001546100a691600281810b926301000000909204900b9083565b60408051600294850b81529290930b602083015291810191909152606001610074565b3480156100d4575f80fd5b50600280546003546100a69282810b9263010000009004900b9083565b3480156100fc575f80fd5b50610060610127565b610124600173fffd8963efd1fc6a506488495d951d5263988d2661014b565b81565b6101246401000276a36001610172565b634e487b7160e01b5f52601160045260245ffd5b6001600160a01b0382811682821603908082111561016b5761016b610137565b5092915050565b6001600160a01b0381811683821601908082111561016b5761016b61013756fea2646970667358221220fffc2dcf459acd1816893f7d8211aa55f3270d733dd99a435a34641ecaaf469064736f6c63430008180033","linkReferences":{}},"methodIdentifiers":{"LIQ_PARAMS()":"636ccfd2","MAX_PRICE_LIMIT()":"542524dd","MIN_PRICE_LIMIT()":"c7b8e15d","REMOVE_LIQ_PARAMS()":"6d97c460"},"id":60}