{"abi":[{"type":"function","name":"protocolFeeForPool","inputs":[{"name":"","type":"tuple","internalType":"struct PoolKey","components":[{"name":"currency0","type":"address","internalType":"Currency"},{"name":"currency1","type":"address","internalType":"Currency"},{"name":"fee","type":"uint24","internalType":"uint24"},{"name":"tickSpacing","type":"int24","internalType":"int24"},{"name":"hooks","type":"address","internalType":"contract IHooks"}]}],"outputs":[{"name":"","type":"uint16","internalType":"uint16"}],"stateMutability":"pure"}],"bytecode":{"object":"0x608060405234801561000f575f80fd5b506101758061001d5f395ff3fe608060405234801561000f575f80fd5b5060043610610029575f3560e01c8063553bfc371461002d575b5f80fd5b61004261003b3660046100a3565b5061100190565b60405161ffff909116815260200160405180910390f35b6001600160a01b038116811461006d575f80fd5b50565b803561007b81610059565b919050565b803562ffffff8116811461007b575f80fd5b8035600281900b811461007b575f80fd5b5f60a082840312156100b3575f80fd5b60405160a0810181811067ffffffffffffffff821117156100e257634e487b7160e01b5f52604160045260245ffd5b60405282356100f081610059565b8152602083013561010081610059565b602082015261011160408401610080565b604082015261012260608401610092565b606082015261013360808401610070565b6080820152939250505056fea26469706673582212200b51baec47e5794262f348d96b6c2168f2b5ca4b9ff81f833f79ec34443cdee264736f6c63430008180033","linkReferences":{}},"methodIdentifiers":{"protocolFeeForPool((address,address,uint24,int24,address))":"553bfc37"},"id":54}