{"abi":[{"type":"function","name":"protocolFeeForPool","inputs":[{"name":"key","type":"tuple","internalType":"struct PoolKey","components":[{"name":"currency0","type":"address","internalType":"Currency"},{"name":"currency1","type":"address","internalType":"Currency"},{"name":"fee","type":"uint24","internalType":"uint24"},{"name":"tickSpacing","type":"int24","internalType":"int24"},{"name":"hooks","type":"address","internalType":"contract IHooks"}]}],"outputs":[{"name":"","type":"uint16","internalType":"uint16"}],"stateMutability":"view"},{"type":"function","name":"setSwapFeeForPool","inputs":[{"name":"id","type":"bytes32","internalType":"PoolId"},{"name":"fee","type":"uint16","internalType":"uint16"}],"outputs":[],"stateMutability":"nonpayable"},{"type":"function","name":"swapFeeForPool","inputs":[{"name":"","type":"bytes32","internalType":"PoolId"}],"outputs":[{"name":"","type":"uint16","internalType":"uint16"}],"stateMutability":"view"}],"bytecode":{"object":"0x608060405234801561000f575f80fd5b506102c58061001d5f395ff3fe608060405234801561000f575f80fd5b506004361061003f575f3560e01c806308b3dfd614610043578063553bfc371461007d5780639d24676114610090575b5f80fd5b61006661005136600461015e565b5f6020819052908152604090205461ffff1681565b60405161ffff909116815260200160405180910390f35b61006661008b3660046101bf565b6100c3565b6100c161009e36600461025b565b5f91825260208290526040909120805461ffff191661ffff909216919091179055565b005b5f805f6100cf846100e9565b815260208101919091526040015f205461ffff1692915050565b5f81604051602001610141919081516001600160a01b03908116825260208084015182169083015260408084015162ffffff169083015260608084015160020b90830152608092830151169181019190915260a00190565b604051602081830303815290604052805190602001209050919050565b5f6020828403121561016e575f80fd5b5035919050565b6001600160a01b0381168114610189575f80fd5b50565b803561019781610175565b919050565b803562ffffff81168114610197575f80fd5b8035600281900b8114610197575f80fd5b5f60a082840312156101cf575f80fd5b60405160a0810181811067ffffffffffffffff821117156101fe57634e487b7160e01b5f52604160045260245ffd5b604052823561020c81610175565b8152602083013561021c81610175565b602082015261022d6040840161019c565b604082015261023e606084016101ae565b606082015261024f6080840161018c565b60808201529392505050565b5f806040838503121561026c575f80fd5b82359150602083013561ffff81168114610284575f80fd5b80915050925092905056fea26469706673582212204c46dcc2e531c86bea5354cf089d2f3567cc93416ca27112d3f573447ff12c3b64736f6c63430008180033","linkReferences":{}},"methodIdentifiers":{"protocolFeeForPool((address,address,uint24,int24,address))":"553bfc37","setSwapFeeForPool(bytes32,uint16)":"9d246761","swapFeeForPool(bytes32)":"08b3dfd6"},"id":54}