{"abi":[{"type":"function","name":"excludeArtifacts","inputs":[],"outputs":[{"name":"excludedArtifacts_","type":"string[]","internalType":"string[]"}],"stateMutability":"view"},{"type":"function","name":"excludeContracts","inputs":[],"outputs":[{"name":"excludedContracts_","type":"address[]","internalType":"address[]"}],"stateMutability":"view"},{"type":"function","name":"excludeSenders","inputs":[],"outputs":[{"name":"excludedSenders_","type":"address[]","internalType":"address[]"}],"stateMutability":"view"},{"type":"function","name":"targetArtifactSelectors","inputs":[],"outputs":[{"name":"targetedArtifactSelectors_","type":"tuple[]","internalType":"struct StdInvariant.FuzzSelector[]","components":[{"name":"addr","type":"address","internalType":"address"},{"name":"selectors","type":"bytes4[]","internalType":"bytes4[]"}]}],"stateMutability":"view"},{"type":"function","name":"targetArtifacts","inputs":[],"outputs":[{"name":"targetedArtifacts_","type":"string[]","internalType":"string[]"}],"stateMutability":"view"},{"type":"function","name":"targetContracts","inputs":[],"outputs":[{"name":"targetedContracts_","type":"address[]","internalType":"address[]"}],"stateMutability":"view"},{"type":"function","name":"targetSelectors","inputs":[],"outputs":[{"name":"targetedSelectors_","type":"tuple[]","internalType":"struct StdInvariant.FuzzSelector[]","components":[{"name":"addr","type":"address","internalType":"address"},{"name":"selectors","type":"bytes4[]","internalType":"bytes4[]"}]}],"stateMutability":"view"},{"type":"function","name":"targetSenders","inputs":[],"outputs":[{"name":"targetedSenders_","type":"address[]","internalType":"address[]"}],"stateMutability":"view"}],"bytecode":{"object":"0x608060405234801561000f575f80fd5b506107cb8061001d5f395ff3fe608060405234801561000f575f80fd5b5060043610610085575f3560e01c806385226c811161005857806385226c81146100cc578063916a17c6146100e1578063b5508aa9146100e9578063e20c9f71146100f1575f80fd5b80631ed7831c146100895780633e5e3c23146100a75780633f7286f4146100af57806366d9a9a0146100b7575b5f80fd5b6100916100f9565b60405161009e91906105d3565b60405180910390f35b610091610159565b6100916101b7565b6100bf610215565b60405161009e919061061f565b6100d46102ff565b60405161009e91906106d0565b6100bf6103ca565b6100d46104ab565b610091610576565b6060600180548060200260200160405190810160405280929190818152602001828054801561014f57602002820191905f5260205f20905b81546001600160a01b03168152600190910190602001808311610131575b5050505050905090565b6060600380548060200260200160405190810160405280929190818152602001828054801561014f57602002820191905f5260205f209081546001600160a01b03168152600190910190602001808311610131575050505050905090565b6060600280548060200260200160405190810160405280929190818152602001828054801561014f57602002820191905f5260205f209081546001600160a01b03168152600190910190602001808311610131575050505050905090565b60606006805480602002602001604051908101604052809291908181526020015f905b828210156102f6575f8481526020908190206040805180820182526002860290920180546001600160a01b031683526001810180548351818702810187019094528084529394919385830193928301828280156102de57602002820191905f5260205f20905f905b82829054906101000a900460e01b6001600160e01b031916815260200190600401906020826003010492830192600103820291508084116102a05790505b50505050508152505081526020019060010190610238565b50505050905090565b60606005805480602002602001604051908101604052809291908181526020015f905b828210156102f6578382905f5260205f2001805461033f9061075d565b80601f016020809104026020016040519081016040528092919081815260200182805461036b9061075d565b80156103b65780601f1061038d576101008083540402835291602001916103b6565b820191905f5260205f20905b81548152906001019060200180831161039957829003601f168201915b505050505081526020019060010190610322565b60606007805480602002602001604051908101604052809291908181526020015f905b828210156102f6575f8481526020908190206040805180820182526002860290920180546001600160a01b0316835260018101805483518187028101870190945280845293949193858301939283018282801561049357602002820191905f5260205f20905f905b82829054906101000a900460e01b6001600160e01b031916815260200190600401906020826003010492830192600103820291508084116104555790505b505050505081525050815260200190600101906103ed565b60606004805480602002602001604051908101604052809291908181526020015f905b828210156102f6578382905f5260205f200180546104eb9061075d565b80601f01602080910402602001604051908101604052809291908181526020018280546105179061075d565b80156105625780601f1061053957610100808354040283529160200191610562565b820191905f5260205f20905b81548152906001019060200180831161054557829003601f168201915b5050505050815260200190600101906104ce565b60605f80548060200260200160405190810160405280929190818152602001828054801561014f57602002820191905f5260205f209081546001600160a01b03168152600190910190602001808311610131575050505050905090565b602080825282518282018190525f9190848201906040850190845b818110156106135783516001600160a01b0316835292840192918401916001016105ee565b50909695505050505050565b5f60208083018184528085518083526040925060408601915060408160051b8701018488015f5b838110156106c257888303603f19018552815180516001600160a01b031684528701518784018790528051878501819052908801905f9060608601905b808310156106ad5783516001600160e01b0319168252928a019260019290920191908a0190610683565b50968901969450505090860190600101610646565b509098975050505050505050565b5f602080830181845280855180835260408601915060408160051b87010192508387015f5b8281101561075057878503603f19018452815180518087525f5b8181101561072a578281018901518882018a0152880161070f565b505f878201890152601f01601f19169095018601945092850192908501906001016106f5565b5092979650505050505050565b600181811c9082168061077157607f821691505b60208210810361078f57634e487b7160e01b5f52602260045260245ffd5b5091905056fea2646970667358221220e3c96990e84d410ecb796dcaab4dbf22961ab804c1277540067e9b75fb4c92c664736f6c63430008180033","linkReferences":{}},"methodIdentifiers":{"excludeArtifacts()":"b5508aa9","excludeContracts()":"e20c9f71","excludeSenders()":"1ed7831c","targetArtifactSelectors()":"66d9a9a0","targetArtifacts()":"85226c81","targetContracts()":"3f7286f4","targetSelectors()":"916a17c6","targetSenders()":"3e5e3c23"},"id":6}