{"abi":[{"type":"constructor","inputs":[{"name":"_poolManager","type":"address","internalType":"contract IPoolManager"}],"stateMutability":"nonpayable"},{"type":"function","name":"afterAddLiquidity","inputs":[{"name":"","type":"address","internalType":"address"},{"name":"","type":"tuple","internalType":"struct PoolKey","components":[{"name":"currency0","type":"address","internalType":"Currency"},{"name":"currency1","type":"address","internalType":"Currency"},{"name":"fee","type":"uint24","internalType":"uint24"},{"name":"tickSpacing","type":"int24","internalType":"int24"},{"name":"hooks","type":"address","internalType":"contract IHooks"}]},{"name":"","type":"tuple","internalType":"struct IPoolManager.ModifyLiquidityParams","components":[{"name":"tickLower","type":"int24","internalType":"int24"},{"name":"tickUpper","type":"int24","internalType":"int24"},{"name":"liquidityDelta","type":"int256","internalType":"int256"}]},{"name":"","type":"int256","internalType":"BalanceDelta"},{"name":"","type":"bytes","internalType":"bytes"}],"outputs":[{"name":"","type":"bytes4","internalType":"bytes4"}],"stateMutability":"nonpayable"},{"type":"function","name":"afterDonate","inputs":[{"name":"","type":"address","internalType":"address"},{"name":"","type":"tuple","internalType":"struct PoolKey","components":[{"name":"currency0","type":"address","internalType":"Currency"},{"name":"currency1","type":"address","internalType":"Currency"},{"name":"fee","type":"uint24","internalType":"uint24"},{"name":"tickSpacing","type":"int24","internalType":"int24"},{"name":"hooks","type":"address","internalType":"contract IHooks"}]},{"name":"","type":"uint256","internalType":"uint256"},{"name":"","type":"uint256","internalType":"uint256"},{"name":"","type":"bytes","internalType":"bytes"}],"outputs":[{"name":"","type":"bytes4","internalType":"bytes4"}],"stateMutability":"nonpayable"},{"type":"function","name":"afterInitialize","inputs":[{"name":"","type":"address","internalType":"address"},{"name":"","type":"tuple","internalType":"struct PoolKey","components":[{"name":"currency0","type":"address","internalType":"Currency"},{"name":"currency1","type":"address","internalType":"Currency"},{"name":"fee","type":"uint24","internalType":"uint24"},{"name":"tickSpacing","type":"int24","internalType":"int24"},{"name":"hooks","type":"address","internalType":"contract IHooks"}]},{"name":"","type":"uint160","internalType":"uint160"},{"name":"","type":"int24","internalType":"int24"},{"name":"","type":"bytes","internalType":"bytes"}],"outputs":[{"name":"","type":"bytes4","internalType":"bytes4"}],"stateMutability":"nonpayable"},{"type":"function","name":"afterRemoveLiquidity","inputs":[{"name":"","type":"address","internalType":"address"},{"name":"","type":"tuple","internalType":"struct PoolKey","components":[{"name":"currency0","type":"address","internalType":"Currency"},{"name":"currency1","type":"address","internalType":"Currency"},{"name":"fee","type":"uint24","internalType":"uint24"},{"name":"tickSpacing","type":"int24","internalType":"int24"},{"name":"hooks","type":"address","internalType":"contract IHooks"}]},{"name":"","type":"tuple","internalType":"struct IPoolManager.ModifyLiquidityParams","components":[{"name":"tickLower","type":"int24","internalType":"int24"},{"name":"tickUpper","type":"int24","internalType":"int24"},{"name":"liquidityDelta","type":"int256","internalType":"int256"}]},{"name":"","type":"int256","internalType":"BalanceDelta"},{"name":"","type":"bytes","internalType":"bytes"}],"outputs":[{"name":"","type":"bytes4","internalType":"bytes4"}],"stateMutability":"nonpayable"},{"type":"function","name":"afterSwap","inputs":[{"name":"","type":"address","internalType":"address"},{"name":"","type":"tuple","internalType":"struct PoolKey","components":[{"name":"currency0","type":"address","internalType":"Currency"},{"name":"currency1","type":"address","internalType":"Currency"},{"name":"fee","type":"uint24","internalType":"uint24"},{"name":"tickSpacing","type":"int24","internalType":"int24"},{"name":"hooks","type":"address","internalType":"contract IHooks"}]},{"name":"","type":"tuple","internalType":"struct IPoolManager.SwapParams","components":[{"name":"zeroForOne","type":"bool","internalType":"bool"},{"name":"amountSpecified","type":"int256","internalType":"int256"},{"name":"sqrtPriceLimitX96","type":"uint160","internalType":"uint160"}]},{"name":"","type":"int256","internalType":"BalanceDelta"},{"name":"","type":"bytes","internalType":"bytes"}],"outputs":[{"name":"","type":"bytes4","internalType":"bytes4"}],"stateMutability":"nonpayable"},{"type":"function","name":"beforeAddLiquidity","inputs":[{"name":"","type":"address","internalType":"address"},{"name":"","type":"tuple","internalType":"struct PoolKey","components":[{"name":"currency0","type":"address","internalType":"Currency"},{"name":"currency1","type":"address","internalType":"Currency"},{"name":"fee","type":"uint24","internalType":"uint24"},{"name":"tickSpacing","type":"int24","internalType":"int24"},{"name":"hooks","type":"address","internalType":"contract IHooks"}]},{"name":"","type":"tuple","internalType":"struct IPoolManager.ModifyLiquidityParams","components":[{"name":"tickLower","type":"int24","internalType":"int24"},{"name":"tickUpper","type":"int24","internalType":"int24"},{"name":"liquidityDelta","type":"int256","internalType":"int256"}]},{"name":"","type":"bytes","internalType":"bytes"}],"outputs":[{"name":"","type":"bytes4","internalType":"bytes4"}],"stateMutability":"nonpayable"},{"type":"function","name":"beforeDonate","inputs":[{"name":"","type":"address","internalType":"address"},{"name":"","type":"tuple","internalType":"struct PoolKey","components":[{"name":"currency0","type":"address","internalType":"Currency"},{"name":"currency1","type":"address","internalType":"Currency"},{"name":"fee","type":"uint24","internalType":"uint24"},{"name":"tickSpacing","type":"int24","internalType":"int24"},{"name":"hooks","type":"address","internalType":"contract IHooks"}]},{"name":"","type":"uint256","internalType":"uint256"},{"name":"","type":"uint256","internalType":"uint256"},{"name":"","type":"bytes","internalType":"bytes"}],"outputs":[{"name":"","type":"bytes4","internalType":"bytes4"}],"stateMutability":"nonpayable"},{"type":"function","name":"beforeInitialize","inputs":[{"name":"","type":"address","internalType":"address"},{"name":"","type":"tuple","internalType":"struct PoolKey","components":[{"name":"currency0","type":"address","internalType":"Currency"},{"name":"currency1","type":"address","internalType":"Currency"},{"name":"fee","type":"uint24","internalType":"uint24"},{"name":"tickSpacing","type":"int24","internalType":"int24"},{"name":"hooks","type":"address","internalType":"contract IHooks"}]},{"name":"","type":"uint160","internalType":"uint160"},{"name":"","type":"bytes","internalType":"bytes"}],"outputs":[{"name":"","type":"bytes4","internalType":"bytes4"}],"stateMutability":"nonpayable"},{"type":"function","name":"beforeRemoveLiquidity","inputs":[{"name":"","type":"address","internalType":"address"},{"name":"","type":"tuple","internalType":"struct PoolKey","components":[{"name":"currency0","type":"address","internalType":"Currency"},{"name":"currency1","type":"address","internalType":"Currency"},{"name":"fee","type":"uint24","internalType":"uint24"},{"name":"tickSpacing","type":"int24","internalType":"int24"},{"name":"hooks","type":"address","internalType":"contract IHooks"}]},{"name":"","type":"tuple","internalType":"struct IPoolManager.ModifyLiquidityParams","components":[{"name":"tickLower","type":"int24","internalType":"int24"},{"name":"tickUpper","type":"int24","internalType":"int24"},{"name":"liquidityDelta","type":"int256","internalType":"int256"}]},{"name":"","type":"bytes","internalType":"bytes"}],"outputs":[{"name":"","type":"bytes4","internalType":"bytes4"}],"stateMutability":"nonpayable"},{"type":"function","name":"beforeSwap","inputs":[{"name":"","type":"address","internalType":"address"},{"name":"key","type":"tuple","internalType":"struct PoolKey","components":[{"name":"currency0","type":"address","internalType":"Currency"},{"name":"currency1","type":"address","internalType":"Currency"},{"name":"fee","type":"uint24","internalType":"uint24"},{"name":"tickSpacing","type":"int24","internalType":"int24"},{"name":"hooks","type":"address","internalType":"contract IHooks"}]},{"name":"swapData","type":"tuple","internalType":"struct IPoolManager.SwapParams","components":[{"name":"zeroForOne","type":"bool","internalType":"bool"},{"name":"amountSpecified","type":"int256","internalType":"int256"},{"name":"sqrtPriceLimitX96","type":"uint160","internalType":"uint160"}]},{"name":"","type":"bytes","internalType":"bytes"}],"outputs":[{"name":"","type":"bytes4","internalType":"bytes4"}],"stateMutability":"nonpayable"},{"type":"function","name":"getHookPermissions","inputs":[],"outputs":[{"name":"","type":"tuple","internalType":"struct Hooks.Permissions","components":[{"name":"beforeInitialize","type":"bool","internalType":"bool"},{"name":"afterInitialize","type":"bool","internalType":"bool"},{"name":"beforeAddLiquidity","type":"bool","internalType":"bool"},{"name":"afterAddLiquidity","type":"bool","internalType":"bool"},{"name":"beforeRemoveLiquidity","type":"bool","internalType":"bool"},{"name":"afterRemoveLiquidity","type":"bool","internalType":"bool"},{"name":"beforeSwap","type":"bool","internalType":"bool"},{"name":"afterSwap","type":"bool","internalType":"bool"},{"name":"beforeDonate","type":"bool","internalType":"bool"},{"name":"afterDonate","type":"bool","internalType":"bool"}]}],"stateMutability":"pure"},{"type":"function","name":"getVolAndPrice","inputs":[{"name":"key","type":"tuple","internalType":"struct PoolKey","components":[{"name":"currency0","type":"address","internalType":"Currency"},{"name":"currency1","type":"address","internalType":"Currency"},{"name":"fee","type":"uint24","internalType":"uint24"},{"name":"tickSpacing","type":"int24","internalType":"int24"},{"name":"hooks","type":"address","internalType":"contract IHooks"}]}],"outputs":[{"name":"","type":"uint256","internalType":"uint256"},{"name":"","type":"uint256","internalType":"uint256"}],"stateMutability":"view"},{"type":"function","name":"lockAcquired","inputs":[{"name":"","type":"address","internalType":"address"},{"name":"data","type":"bytes","internalType":"bytes"}],"outputs":[{"name":"","type":"bytes","internalType":"bytes"}],"stateMutability":"nonpayable"},{"type":"function","name":"poolManager","inputs":[],"outputs":[{"name":"","type":"address","internalType":"contract IPoolManager"}],"stateMutability":"view"},{"type":"error","name":"HookAddressNotValid","inputs":[{"name":"hooks","type":"address","internalType":"address"}]},{"type":"error","name":"HookNotImplemented","inputs":[]},{"type":"error","name":"InvalidPool","inputs":[]},{"type":"error","name":"LockFailure","inputs":[]},{"type":"error","name":"NotPoolManager","inputs":[]},{"type":"error","name":"NotSelf","inputs":[]}],"bytecode":{"object":"0x60a060405234801561000f575f80fd5b50604051610d36380380610d3683398101604081905261002e91610222565b6001600160a01b038116608052806100453061004c565b505061024f565b6100fc816100f760408051610140810182525f80825260208201819052918101829052606081018290526080810182905260a0810182905260c0810182905260e0810182905261010081018290526101208101919091525060408051610140810182525f80825260208201819052918101829052606081018290526080810182905260a08101829052600160c082015260e08101829052610100810182905261012081019190915290565b6100ff565b50565b805115156001609f1b831615151415806101275750602081015115156001609e1b8316151514155b806101405750604081015115156001609d1b8316151514155b806101595750606081015115156001609c1b8316151514155b806101725750608081015115156001609b1b8316151514155b8061018b575060a081015115156001609a1b8316151514155b806101a4575060c08101511515600160991b8316151514155b806101bd575060e08101511515600160981b8316151514155b806101d757506101008101511515600160971b8316151514155b806101f157506101208101511515600160961b8316151514155b1561021e57604051630732d7b560e51b81526001600160a01b038316600482015260240160405180910390fd5b5050565b5f60208284031215610232575f80fd5b81516001600160a01b0381168114610248575f80fd5b9392505050565b608051610ac16102755f395f818161026d015281816102b401526103d60152610ac15ff3fe608060405234801561000f575f80fd5b50600436106100e5575f3560e01c8063b505b4ce11610088578063c3d5d4e611610063578063c3d5d4e61461016d578063c4e833ce146101b4578063dc4c90d314610268578063e1b4af691461017b575f80fd5b8063b505b4ce1461016d578063b6a8b0fa1461017b578063c37f13f814610189575f80fd5b8063575e24b4116100c3578063575e24b41461014c578063a6ab2a4314610112578063a910f80f1461015f578063b47b2fb11461016d575f80fd5b806315c7afb4146100e95780632b58404e146101125780633440d8201461013e575b5f80fd5b6100fc6100f7366004610503565b6102a7565b6040516101099190610554565b60405180910390f35b6101256101203660046105c6565b610390565b6040516001600160e01b03199091168152602001610109565b61012561012036600461063d565b61012561015a3660046105c6565b6103aa565b6101256101203660046106ad565b610125610120366004610735565b610125610120366004610798565b61019f6101973660046107f2565b506064908190565b60408051928352602083019190915201610109565b61025b60408051610140810182525f80825260208201819052918101829052606081018290526080810182905260a0810182905260c0810182905260e0810182905261010081018290526101208101919091525060408051610140810182525f80825260208201819052918101829052606081018290526080810182905260a08101829052600160c082015260e08101829052610100810182905261012081019190915290565b604051610109919061080c565b61028f7f000000000000000000000000000000000000000000000000000000000000000081565b6040516001600160a01b039091168152602001610109565b6060336001600160a01b037f000000000000000000000000000000000000000000000000000000000000000016146102f25760405163570c108560e11b815260040160405180910390fd5b5f80306001600160a01b0316858560405161030e9291906108c4565b5f604051808303815f865af19150503d805f8114610347576040519150601f19603f3d011682016040523d82523d5f602084013e61034c565b606091505b509150915081156103605791506103899050565b80515f03610381576040516314815f4760e31b815260040160405180910390fd5b805160208201fd5b9392505050565b5f604051630a85dc2960e01b815260040160405180910390fd5b5f6064816103bc602087013583610450565b604051631482573b60e31b81529091506001600160a01b037f0000000000000000000000000000000000000000000000000000000000000000169063a412b9d89061040f908a90611af4906004016108d3565b5f604051808303815f87803b158015610426575f80fd5b505af1158015610438573d5f803e3d5ffd5b506315d7892d60e21b9b9a5050505050505050505050565b5f6207a120610ab4610465621e848085610a51565b61046f9082610a61565b61047c6216e36087610a51565b6104869084610a61565b6104909190610a61565b61049c906103e8610a78565b925050505b92915050565b6001600160a01b03811681146104bb575f80fd5b50565b5f8083601f8401126104ce575f80fd5b50813567ffffffffffffffff8111156104e5575f80fd5b6020830191508360208285010111156104fc575f80fd5b9250929050565b5f805f60408486031215610515575f80fd5b8335610520816104a7565b9250602084013567ffffffffffffffff81111561053b575f80fd5b610547868287016104be565b9497909650939450505050565b5f602080835283518060208501525f5b8181101561058057858101830151858201604001528201610564565b505f604082860101526040601f19601f8301168501019250505092915050565b5f60a082840312156105b0575f80fd5b50919050565b5f606082840312156105b0575f80fd5b5f805f805f61014086880312156105db575f80fd5b85356105e6816104a7565b94506105f587602088016105a0565b93506106048760c088016105b6565b925061012086013567ffffffffffffffff811115610620575f80fd5b61062c888289016104be565b969995985093965092949392505050565b5f805f805f6101008688031215610652575f80fd5b853561065d816104a7565b945061066c87602088016105a0565b935060c086013561067c816104a7565b925060e086013567ffffffffffffffff811115610620575f80fd5b8035600281900b81146106a8575f80fd5b919050565b5f805f805f8061012087890312156106c3575f80fd5b86356106ce816104a7565b95506106dd88602089016105a0565b945060c08701356106ed816104a7565b93506106fb60e08801610697565b925061010087013567ffffffffffffffff811115610717575f80fd5b61072389828a016104be565b979a9699509497509295939492505050565b5f805f805f80610160878903121561074b575f80fd5b8635610756816104a7565b955061076588602089016105a0565b94506107748860c089016105b6565b9350610120870135925061014087013567ffffffffffffffff811115610717575f80fd5b5f805f805f8061012087890312156107ae575f80fd5b86356107b9816104a7565b95506107c888602089016105a0565b945060c0870135935060e0870135925061010087013567ffffffffffffffff811115610717575f80fd5b5f60a08284031215610802575f80fd5b61038983836105a0565b8151151581526101408101602083015161082a602084018215159052565b50604083015161083e604084018215159052565b506060830151610852606084018215159052565b506080830151610866608084018215159052565b5060a083015161087a60a084018215159052565b5060c083015161088e60c084018215159052565b5060e08301516108a260e084018215159052565b5061010083810151151590830152610120928301511515929091019190915290565b818382375f9101908152919050565b60c0810183356108e2816104a7565b6001600160a01b0390811683526020850135906108fe826104a7565b908116602084015260408501359062ffffff80831680841461091e575f80fd5b604086015261092f60608801610697565b60020b606086015260808701359250610947836104a7565b911660808401529290921660a090910152919050565b634e487b7160e01b5f52601160045260245ffd5b600181815b808511156109ab57815f19048211156109915761099161095d565b8085161561099e57918102915b93841c9390800290610976565b509250929050565b5f826109c1575060016104a1565b816109cd57505f6104a1565b81600181146109e357600281146109ed57610a09565b60019150506104a1565b60ff8411156109fe576109fe61095d565b50506001821b6104a1565b5060208310610133831016604e8410600b8410161715610a2c575081810a6104a1565b610a368383610971565b805f1904821115610a4957610a4961095d565b029392505050565b5f61038962ffffff8416836109b3565b80820281158282048414176104a1576104a161095d565b808201808211156104a1576104a161095d56fea2646970667358221220ce9b221be771e1d92f21822af9935360a0c289faca3b89224e4488ee04d80ab064736f6c63430008180033","linkReferences":{}},"methodIdentifiers":{"afterAddLiquidity(address,(address,address,uint24,int24,address),(int24,int24,int256),int256,bytes)":"b505b4ce","afterDonate(address,(address,address,uint24,int24,address),uint256,uint256,bytes)":"e1b4af69","afterInitialize(address,(address,address,uint24,int24,address),uint160,int24,bytes)":"a910f80f","afterRemoveLiquidity(address,(address,address,uint24,int24,address),(int24,int24,int256),int256,bytes)":"c3d5d4e6","afterSwap(address,(address,address,uint24,int24,address),(bool,int256,uint160),int256,bytes)":"b47b2fb1","beforeAddLiquidity(address,(address,address,uint24,int24,address),(int24,int24,int256),bytes)":"a6ab2a43","beforeDonate(address,(address,address,uint24,int24,address),uint256,uint256,bytes)":"b6a8b0fa","beforeInitialize(address,(address,address,uint24,int24,address),uint160,bytes)":"3440d820","beforeRemoveLiquidity(address,(address,address,uint24,int24,address),(int24,int24,int256),bytes)":"2b58404e","beforeSwap(address,(address,address,uint24,int24,address),(bool,int256,uint160),bytes)":"575e24b4","getHookPermissions()":"c4e833ce","getVolAndPrice((address,address,uint24,int24,address))":"c37f13f8","lockAcquired(address,bytes)":"15c7afb4","poolManager()":"dc4c90d3"},"id":67}