{"abi":[{"type":"constructor","inputs":[{"name":"_poolManager","type":"address","internalType":"contract IPoolManager"}],"stateMutability":"nonpayable"},{"type":"function","name":"afterAddLiquidity","inputs":[{"name":"","type":"address","internalType":"address"},{"name":"","type":"tuple","internalType":"struct PoolKey","components":[{"name":"currency0","type":"address","internalType":"Currency"},{"name":"currency1","type":"address","internalType":"Currency"},{"name":"fee","type":"uint24","internalType":"uint24"},{"name":"tickSpacing","type":"int24","internalType":"int24"},{"name":"hooks","type":"address","internalType":"contract IHooks"}]},{"name":"","type":"tuple","internalType":"struct IPoolManager.ModifyLiquidityParams","components":[{"name":"tickLower","type":"int24","internalType":"int24"},{"name":"tickUpper","type":"int24","internalType":"int24"},{"name":"liquidityDelta","type":"int256","internalType":"int256"}]},{"name":"","type":"int256","internalType":"BalanceDelta"},{"name":"","type":"bytes","internalType":"bytes"}],"outputs":[{"name":"","type":"bytes4","internalType":"bytes4"}],"stateMutability":"nonpayable"},{"type":"function","name":"afterDonate","inputs":[{"name":"","type":"address","internalType":"address"},{"name":"","type":"tuple","internalType":"struct PoolKey","components":[{"name":"currency0","type":"address","internalType":"Currency"},{"name":"currency1","type":"address","internalType":"Currency"},{"name":"fee","type":"uint24","internalType":"uint24"},{"name":"tickSpacing","type":"int24","internalType":"int24"},{"name":"hooks","type":"address","internalType":"contract IHooks"}]},{"name":"","type":"uint256","internalType":"uint256"},{"name":"","type":"uint256","internalType":"uint256"},{"name":"","type":"bytes","internalType":"bytes"}],"outputs":[{"name":"","type":"bytes4","internalType":"bytes4"}],"stateMutability":"nonpayable"},{"type":"function","name":"afterInitialize","inputs":[{"name":"","type":"address","internalType":"address"},{"name":"","type":"tuple","internalType":"struct PoolKey","components":[{"name":"currency0","type":"address","internalType":"Currency"},{"name":"currency1","type":"address","internalType":"Currency"},{"name":"fee","type":"uint24","internalType":"uint24"},{"name":"tickSpacing","type":"int24","internalType":"int24"},{"name":"hooks","type":"address","internalType":"contract IHooks"}]},{"name":"","type":"uint160","internalType":"uint160"},{"name":"","type":"int24","internalType":"int24"},{"name":"","type":"bytes","internalType":"bytes"}],"outputs":[{"name":"","type":"bytes4","internalType":"bytes4"}],"stateMutability":"nonpayable"},{"type":"function","name":"afterRemoveLiquidity","inputs":[{"name":"","type":"address","internalType":"address"},{"name":"","type":"tuple","internalType":"struct PoolKey","components":[{"name":"currency0","type":"address","internalType":"Currency"},{"name":"currency1","type":"address","internalType":"Currency"},{"name":"fee","type":"uint24","internalType":"uint24"},{"name":"tickSpacing","type":"int24","internalType":"int24"},{"name":"hooks","type":"address","internalType":"contract IHooks"}]},{"name":"","type":"tuple","internalType":"struct IPoolManager.ModifyLiquidityParams","components":[{"name":"tickLower","type":"int24","internalType":"int24"},{"name":"tickUpper","type":"int24","internalType":"int24"},{"name":"liquidityDelta","type":"int256","internalType":"int256"}]},{"name":"","type":"int256","internalType":"BalanceDelta"},{"name":"","type":"bytes","internalType":"bytes"}],"outputs":[{"name":"","type":"bytes4","internalType":"bytes4"}],"stateMutability":"nonpayable"},{"type":"function","name":"afterSwap","inputs":[{"name":"","type":"address","internalType":"address"},{"name":"","type":"tuple","internalType":"struct PoolKey","components":[{"name":"currency0","type":"address","internalType":"Currency"},{"name":"currency1","type":"address","internalType":"Currency"},{"name":"fee","type":"uint24","internalType":"uint24"},{"name":"tickSpacing","type":"int24","internalType":"int24"},{"name":"hooks","type":"address","internalType":"contract IHooks"}]},{"name":"","type":"tuple","internalType":"struct IPoolManager.SwapParams","components":[{"name":"zeroForOne","type":"bool","internalType":"bool"},{"name":"amountSpecified","type":"int256","internalType":"int256"},{"name":"sqrtPriceLimitX96","type":"uint160","internalType":"uint160"}]},{"name":"","type":"int256","internalType":"BalanceDelta"},{"name":"","type":"bytes","internalType":"bytes"}],"outputs":[{"name":"","type":"bytes4","internalType":"bytes4"}],"stateMutability":"nonpayable"},{"type":"function","name":"beforeAddLiquidity","inputs":[{"name":"","type":"address","internalType":"address"},{"name":"","type":"tuple","internalType":"struct PoolKey","components":[{"name":"currency0","type":"address","internalType":"Currency"},{"name":"currency1","type":"address","internalType":"Currency"},{"name":"fee","type":"uint24","internalType":"uint24"},{"name":"tickSpacing","type":"int24","internalType":"int24"},{"name":"hooks","type":"address","internalType":"contract IHooks"}]},{"name":"","type":"tuple","internalType":"struct IPoolManager.ModifyLiquidityParams","components":[{"name":"tickLower","type":"int24","internalType":"int24"},{"name":"tickUpper","type":"int24","internalType":"int24"},{"name":"liquidityDelta","type":"int256","internalType":"int256"}]},{"name":"","type":"bytes","internalType":"bytes"}],"outputs":[{"name":"","type":"bytes4","internalType":"bytes4"}],"stateMutability":"nonpayable"},{"type":"function","name":"beforeDonate","inputs":[{"name":"","type":"address","internalType":"address"},{"name":"","type":"tuple","internalType":"struct PoolKey","components":[{"name":"currency0","type":"address","internalType":"Currency"},{"name":"currency1","type":"address","internalType":"Currency"},{"name":"fee","type":"uint24","internalType":"uint24"},{"name":"tickSpacing","type":"int24","internalType":"int24"},{"name":"hooks","type":"address","internalType":"contract IHooks"}]},{"name":"","type":"uint256","internalType":"uint256"},{"name":"","type":"uint256","internalType":"uint256"},{"name":"","type":"bytes","internalType":"bytes"}],"outputs":[{"name":"","type":"bytes4","internalType":"bytes4"}],"stateMutability":"nonpayable"},{"type":"function","name":"beforeInitialize","inputs":[{"name":"","type":"address","internalType":"address"},{"name":"","type":"tuple","internalType":"struct PoolKey","components":[{"name":"currency0","type":"address","internalType":"Currency"},{"name":"currency1","type":"address","internalType":"Currency"},{"name":"fee","type":"uint24","internalType":"uint24"},{"name":"tickSpacing","type":"int24","internalType":"int24"},{"name":"hooks","type":"address","internalType":"contract IHooks"}]},{"name":"","type":"uint160","internalType":"uint160"},{"name":"","type":"bytes","internalType":"bytes"}],"outputs":[{"name":"","type":"bytes4","internalType":"bytes4"}],"stateMutability":"nonpayable"},{"type":"function","name":"beforeRemoveLiquidity","inputs":[{"name":"","type":"address","internalType":"address"},{"name":"","type":"tuple","internalType":"struct PoolKey","components":[{"name":"currency0","type":"address","internalType":"Currency"},{"name":"currency1","type":"address","internalType":"Currency"},{"name":"fee","type":"uint24","internalType":"uint24"},{"name":"tickSpacing","type":"int24","internalType":"int24"},{"name":"hooks","type":"address","internalType":"contract IHooks"}]},{"name":"","type":"tuple","internalType":"struct IPoolManager.ModifyLiquidityParams","components":[{"name":"tickLower","type":"int24","internalType":"int24"},{"name":"tickUpper","type":"int24","internalType":"int24"},{"name":"liquidityDelta","type":"int256","internalType":"int256"}]},{"name":"","type":"bytes","internalType":"bytes"}],"outputs":[{"name":"","type":"bytes4","internalType":"bytes4"}],"stateMutability":"nonpayable"},{"type":"function","name":"beforeSwap","inputs":[{"name":"","type":"address","internalType":"address"},{"name":"key","type":"tuple","internalType":"struct PoolKey","components":[{"name":"currency0","type":"address","internalType":"Currency"},{"name":"currency1","type":"address","internalType":"Currency"},{"name":"fee","type":"uint24","internalType":"uint24"},{"name":"tickSpacing","type":"int24","internalType":"int24"},{"name":"hooks","type":"address","internalType":"contract IHooks"}]},{"name":"swapData","type":"tuple","internalType":"struct IPoolManager.SwapParams","components":[{"name":"zeroForOne","type":"bool","internalType":"bool"},{"name":"amountSpecified","type":"int256","internalType":"int256"},{"name":"sqrtPriceLimitX96","type":"uint160","internalType":"uint160"}]},{"name":"","type":"bytes","internalType":"bytes"}],"outputs":[{"name":"","type":"bytes4","internalType":"bytes4"}],"stateMutability":"nonpayable"},{"type":"function","name":"getHookPermissions","inputs":[],"outputs":[{"name":"","type":"tuple","internalType":"struct Hooks.Permissions","components":[{"name":"beforeInitialize","type":"bool","internalType":"bool"},{"name":"afterInitialize","type":"bool","internalType":"bool"},{"name":"beforeAddLiquidity","type":"bool","internalType":"bool"},{"name":"afterAddLiquidity","type":"bool","internalType":"bool"},{"name":"beforeRemoveLiquidity","type":"bool","internalType":"bool"},{"name":"afterRemoveLiquidity","type":"bool","internalType":"bool"},{"name":"beforeSwap","type":"bool","internalType":"bool"},{"name":"afterSwap","type":"bool","internalType":"bool"},{"name":"beforeDonate","type":"bool","internalType":"bool"},{"name":"afterDonate","type":"bool","internalType":"bool"}]}],"stateMutability":"pure"},{"type":"function","name":"getVolAndPrice","inputs":[{"name":"key","type":"tuple","internalType":"struct PoolKey","components":[{"name":"currency0","type":"address","internalType":"Currency"},{"name":"currency1","type":"address","internalType":"Currency"},{"name":"fee","type":"uint24","internalType":"uint24"},{"name":"tickSpacing","type":"int24","internalType":"int24"},{"name":"hooks","type":"address","internalType":"contract IHooks"}]}],"outputs":[{"name":"","type":"int256","internalType":"int256"},{"name":"","type":"uint256","internalType":"uint256"}],"stateMutability":"view"},{"type":"function","name":"lockAcquired","inputs":[{"name":"","type":"address","internalType":"address"},{"name":"data","type":"bytes","internalType":"bytes"}],"outputs":[{"name":"","type":"bytes","internalType":"bytes"}],"stateMutability":"nonpayable"},{"type":"function","name":"poolManager","inputs":[],"outputs":[{"name":"","type":"address","internalType":"contract IPoolManager"}],"stateMutability":"view"},{"type":"function","name":"setDynamicFee","inputs":[{"name":"key","type":"tuple","internalType":"struct PoolKey","components":[{"name":"currency0","type":"address","internalType":"Currency"},{"name":"currency1","type":"address","internalType":"Currency"},{"name":"fee","type":"uint24","internalType":"uint24"},{"name":"tickSpacing","type":"int24","internalType":"int24"},{"name":"hooks","type":"address","internalType":"contract IHooks"}]}],"outputs":[],"stateMutability":"nonpayable"},{"type":"error","name":"HookAddressNotValid","inputs":[{"name":"hooks","type":"address","internalType":"address"}]},{"type":"error","name":"HookNotImplemented","inputs":[]},{"type":"error","name":"InvalidPool","inputs":[]},{"type":"error","name":"LockFailure","inputs":[]},{"type":"error","name":"NotPoolManager","inputs":[]},{"type":"error","name":"NotSelf","inputs":[]}],"bytecode":{"object":"0x60a060405234801561000f575f80fd5b50604051610c20380380610c2083398101604081905261002e91610222565b6001600160a01b038116608052806100453061004c565b505061024f565b6100fc816100f760408051610140810182525f80825260208201819052918101829052606081018290526080810182905260a0810182905260c0810182905260e0810182905261010081018290526101208101919091525060408051610140810182525f80825260208201819052918101829052606081018290526080810182905260a08101829052600160c082015260e08101829052610100810182905261012081019190915290565b6100ff565b50565b805115156001609f1b831615151415806101275750602081015115156001609e1b8316151514155b806101405750604081015115156001609d1b8316151514155b806101595750606081015115156001609c1b8316151514155b806101725750608081015115156001609b1b8316151514155b8061018b575060a081015115156001609a1b8316151514155b806101a4575060c08101511515600160991b8316151514155b806101bd575060e08101511515600160981b8316151514155b806101d757506101008101511515600160971b8316151514155b806101f157506101208101511515600160961b8316151514155b1561021e57604051630732d7b560e51b81526001600160a01b038316600482015260240160405180910390fd5b5050565b5f60208284031215610232575f80fd5b81516001600160a01b0381168114610248575f80fd5b9392505050565b6080516109ab6102755f395f818161028d015281816102e0015261035a01526109ab5ff3fe608060405234801561000f575f80fd5b50600436106100f0575f3560e01c8063b47b2fb111610093578063c3d5d4e611610063578063c3d5d4e61461018d578063c4e833ce146101d4578063dc4c90d314610288578063e1b4af691461019b575f80fd5b8063b47b2fb11461018d578063b505b4ce1461018d578063b6a8b0fa1461019b578063c37f13f8146101a9575f80fd5b80633440d820116100ce5780633440d8201461015e578063575e24b41461016c578063a6ab2a4314610132578063a910f80f1461017f575f80fd5b806307979433146100f457806315c7afb4146101095780632b58404e14610132575b5f80fd5b6101076101023660046104ad565b6102c7565b005b61011c610117366004610523565b61034d565b6040516101299190610574565b60405180910390f35b6101456101403660046105d0565b610436565b6040516001600160e01b03199091168152602001610129565b610145610140366004610647565b61014561017a3660046105d0565b610450565b6101456101403660046106b7565b61014561014036600461073f565b6101456101403660046107a2565b6101bf6101b73660046104ad565b506064908190565b60408051928352602083019190915201610129565b61027b60408051610140810182525f80825260208201819052918101829052606081018290526080810182905260a0810182905260c0810182905260e0810182905261010081018290526101208101919091525060408051610140810182525f80825260208201819052918101829052606081018290526080810182905260a08101829052600160c082015260e08101829052610100810182905261012081019190915290565b60405161012991906107fc565b6102af7f000000000000000000000000000000000000000000000000000000000000000081565b6040516001600160a01b039091168152602001610129565b5f54604051631482573b60e31b81526001600160a01b037f0000000000000000000000000000000000000000000000000000000000000000169163a412b9d89161031d91859162ffffff909116906004016108c6565b5f604051808303815f87803b158015610334575f80fd5b505af1158015610346573d5f803e3d5ffd5b5050505050565b6060336001600160a01b037f000000000000000000000000000000000000000000000000000000000000000016146103985760405163570c108560e11b815260040160405180910390fd5b5f80306001600160a01b031685856040516103b492919061094d565b5f604051808303815f865af19150503d805f81146103ed576040519150601f19603f3d011682016040523d82523d5f602084013e6103f2565b606091505b5091509150811561040657915061042f9050565b80515f03610427576040516314815f4760e31b815260040160405180910390fd5b805160208201fd5b9392505050565b5f604051630a85dc2960e01b815260040160405180910390fd5b5f610461606086016040870161095c565b505f805462ffffff1916611af41790556020840135606480610482886102c7565b506315d7892d60e21b98975050505050505050565b5f60a082840312156104a7575f80fd5b50919050565b5f60a082840312156104bd575f80fd5b61042f8383610497565b6001600160a01b03811681146104db575f80fd5b50565b5f8083601f8401126104ee575f80fd5b50813567ffffffffffffffff811115610505575f80fd5b60208301915083602082850101111561051c575f80fd5b9250929050565b5f805f60408486031215610535575f80fd5b8335610540816104c7565b9250602084013567ffffffffffffffff81111561055b575f80fd5b610567868287016104de565b9497909650939450505050565b5f602080835283518060208501525f5b818110156105a057858101830151858201604001528201610584565b505f604082860101526040601f19601f8301168501019250505092915050565b5f606082840312156104a7575f80fd5b5f805f805f61014086880312156105e5575f80fd5b85356105f0816104c7565b94506105ff8760208801610497565b935061060e8760c088016105c0565b925061012086013567ffffffffffffffff81111561062a575f80fd5b610636888289016104de565b969995985093965092949392505050565b5f805f805f610100868803121561065c575f80fd5b8535610667816104c7565b94506106768760208801610497565b935060c0860135610686816104c7565b925060e086013567ffffffffffffffff81111561062a575f80fd5b8035600281900b81146106b2575f80fd5b919050565b5f805f805f8061012087890312156106cd575f80fd5b86356106d8816104c7565b95506106e78860208901610497565b945060c08701356106f7816104c7565b935061070560e088016106a1565b925061010087013567ffffffffffffffff811115610721575f80fd5b61072d89828a016104de565b979a9699509497509295939492505050565b5f805f805f806101608789031215610755575f80fd5b8635610760816104c7565b955061076f8860208901610497565b945061077e8860c089016105c0565b9350610120870135925061014087013567ffffffffffffffff811115610721575f80fd5b5f805f805f8061012087890312156107b8575f80fd5b86356107c3816104c7565b95506107d28860208901610497565b945060c0870135935060e0870135925061010087013567ffffffffffffffff811115610721575f80fd5b8151151581526101408101602083015161081a602084018215159052565b50604083015161082e604084018215159052565b506060830151610842606084018215159052565b506080830151610856608084018215159052565b5060a083015161086a60a084018215159052565b5060c083015161087e60c084018215159052565b5060e083015161089260e084018215159052565b5061010083810151151590830152610120928301511515929091019190915290565b803562ffffff811681146106b2575f80fd5b60c0810183356108d5816104c7565b6001600160a01b0390811683526020850135906108f1826104c7565b8082166020850152610905604087016108b4565b915062ffffff808316604086015261091f606088016106a1565b60020b606086015260808701359250610937836104c7565b911660808401529290921660a090910152919050565b818382375f9101908152919050565b5f6020828403121561096c575f80fd5b61042f826108b456fea2646970667358221220c6a89aca6669743bddb9ce63d307b1030c0372be507958a7dd0d3783f38b495464736f6c63430008180033","linkReferences":{}},"methodIdentifiers":{"afterAddLiquidity(address,(address,address,uint24,int24,address),(int24,int24,int256),int256,bytes)":"b505b4ce","afterDonate(address,(address,address,uint24,int24,address),uint256,uint256,bytes)":"e1b4af69","afterInitialize(address,(address,address,uint24,int24,address),uint160,int24,bytes)":"a910f80f","afterRemoveLiquidity(address,(address,address,uint24,int24,address),(int24,int24,int256),int256,bytes)":"c3d5d4e6","afterSwap(address,(address,address,uint24,int24,address),(bool,int256,uint160),int256,bytes)":"b47b2fb1","beforeAddLiquidity(address,(address,address,uint24,int24,address),(int24,int24,int256),bytes)":"a6ab2a43","beforeDonate(address,(address,address,uint24,int24,address),uint256,uint256,bytes)":"b6a8b0fa","beforeInitialize(address,(address,address,uint24,int24,address),uint160,bytes)":"3440d820","beforeRemoveLiquidity(address,(address,address,uint24,int24,address),(int24,int24,int256),bytes)":"2b58404e","beforeSwap(address,(address,address,uint24,int24,address),(bool,int256,uint160),bytes)":"575e24b4","getHookPermissions()":"c4e833ce","getVolAndPrice((address,address,uint24,int24,address))":"c37f13f8","lockAcquired(address,bytes)":"15c7afb4","poolManager()":"dc4c90d3","setDynamicFee((address,address,uint24,int24,address))":"07979433"},"id":66}